:100000000C94CA020C94E7020C94E7020C94E702E9
:100010000C94E7020C94E7020C94E7020C94E702BC
:100020000C94E7020C94E7020C943F200C941321EB
:100030000C94FC1A0C94E7020C94E7020C94E7026F
:100040000C94E7020C94E7020C94E7020C94E7028C
:100050000C94E7020C94831B0C94E7020C94E702C7
:100060000C94E7020C94E7020C94E7020C94E7026C
:100070000C94E7020C94E7020C94E7020C94E7025C
:100080000C94E7020C94E7020C94E7020C94E7024C
:100090000C94E7020C94E7020C94E7020C94E7023C
:1000A0000C94E7020C94E7020C94E70235002B0055
:1000B0002961D85C025100001E00140004001D00DC
:1000C0003400AA001F001A0016001B00E2002A627A
:1000D00020000800070006002F002C6821001500F2
:1000E000090019003068A900220017000A00050065
:1000F00000004C001B080608000019080000A800BA
:100100001A08015300002B020000045123001C00B8
:100110000B00110000000351240018000D00100016
:100120002B084A0025000C000E00360002512C411D
:10013000260012000F003700AC00287227001300C1
:1001400033003800AE004D002E0A2D082A43D95C3A
:10015000AB000000010001000100010001000000EF
:100160001E02010001000100010001001F02310216
:10017000310001000100010020022F0026022F02A1
:1001800001000100210230002702300201000100BD
:1001900022023502350001000000010001000100CB
:1001A000000001000000010001000100000001004A
:1001B0000000010023020100010001000000010015
:1001C00024023402340001000100010025022D0246
:1001D0002D0036020100010026022E022E003702F9
:1001E0000100010027020100330238020100010072
:1001F00001000100010001000100000000000000FA
:1002000000000000000000000000000000000000EE
:100210000000FA0000000000EF0000000000F20003
:100220000000ED00EE0000000000F1000000000002
:10023000F0000000FD00F9000000000000000000D8
:100240000000F300000000000000000000000000BB
:10025000000000000000000000000000000000009E
:10026000500000000000000000004A0051004D0056
:100270000000000000004B0052004E00000028006B
:10028000000000004F0000000000290000000000F6
:10029000000000000000000000000000000000005E
:1002A000000000000000000000000000000000004E
:1002B0001E07000000000000000000001F071A07D2
:1002C00016071B0700000407200708070707060793
:1002D00000000A0721071507090719070000000099
:1002E00022070000000000000000000000000000E5
:1002F00000000000000000000000000000000000FE
:100300000000000023071C07500000000000000050
:1003100024071807510000000000000025070C0703
:100320005200000000000000000000004F0000002C
:1003300000000000000000000000000000000000BD
:1003400000000000000000000000000000000000AD
:1003500000000000000000003A0000000000000063
:10036000000000003B000000000000000000000052
:100370003C00000000000000000000003D00000004
:1003800000000000000000003E000000000000002F
:100390000000000000000000000000000000005C01
:1003A0000000000000000000000000003F0000000E
:1003B00000000000000000004000000000000000FD
:1003C00000000000410000000000000000000000EC
:1003D0004200000000000000000000004300000098
:1003E000000000000000000000000000000000000D
:1003F0000000000016034500720067006F00440013
:100400006F007800200045005A00000028035A00C1
:1004100053004100200054006500630068006E0036
:100420006F006C006F006700790020004C006100D5
:100430006200730000000403090409025400030170
:1004400000A0FA09040000010301010009211101C3
:100450000001224000070581030800010904010092
:1004600001030102000921110100012247000705D3
:1004700082030800010904020001030000000921B1
:1004800011010001226D0007058303200001120104
:1004900000020000000897327449010001020001C7
:1004A00005010980A101850319012AB7001501265C
:1004B000B700950175108100C0050C0901A10185E7
:1004C0000419012AA002150126A0029501751081C8
:1004D00000C005010906A1018506050719E029E705
:1004E000150025019508750181020507190029EFFE
:1004F0001500250195F075018102050819012905EE
:10050000950575019102950175039101C0050109D9
:1005100002A1010901A100050919012908150025F9
:100520000195087501810205010930093115812500
:100530007F95027508810609381581257F9501751B
:10054000088106050C0A38021581257F950175087A
:100550008106C0C005010906A101050719E029E7C8
:100560001500250195087501810295017508810125
:100570000507190029FF150026FF0095067508815B
:100580000005081901290595057501910295017568
:10059000039101C011241FBECFEFDAE0DEBFCDBF53
:1005A00011E0A0E0B1E0EEE6F9E402C005900D92A2
:1005B000A039B107D9F722E0A0E9B1E001C01D924E
:1005C000A33EB207E1F70E940B140C949F240C94F5
:1005D00000008098889A8198899A84988C9A859846
:1005E0008D9A86988E9A87988F9A08952098289841
:1005F0002198299822982A9823982B9852985A98AB
:1006000053985B983E9846980895CF93C82F8730AB
:1006100078F58091060190910701892B39F564E600
:1006200070E080E40E94BF18909307018093060158
:10063000892BD1F464E670E082E10E942D19909339
:10064000070180930601892B79F481E090E001C0D5
:10065000880FCA95EAF764E670E080950E942D192C
:1006600090930701809306010E948019CF9108950D
:100670008A30B1F038F4883069F0893071F0209A0E
:100680002898F4CF8C3091F070F08D30C1F73E9AFD
:100690004698ECCF219A2998E9CF229A2A98E6CF5A
:1006A000239A2B98E3CF529A5A98E0CF539A5B98AB
:1006B000DDCFCF93873050F58091060190910701EF
:1006C000C0E0892B71F464E670E081E40E94BF18F9
:1006D0009093070180930601892B31F0C0E00E94BE
:1006E00080198C2FCF91089584E690E00E945C19C8
:1006F00097FF05C09093070180930601EFCFC82FA5
:10070000C0951092070110920601E9CFCFB18FB1C9
:10071000869586958C73C3708C2BC82FC095E1CFBE
:100720000E949A0490E090930701809306010E9432
:10073000F6020E94E9020895EF92FF920F931F9331
:10074000CF93DF938091060190910701892B91F05F
:10075000809192018F5F8093920181110BC00E9462
:100760009A0490E09093070180930601892B11F47D
:100770000E942D0402EB12E0C0E0D0E087E0E82EFA
:10078000EC0E8C2F0E9405038E2D0E9405038C2FEA
:100790000E9459038F73F80191918F01F12C8917F1
:1007A00021F031978083FF24F3948E2D0E9459030A
:1007B0008F73F8019681891779F0868381E08F29FC
:1007C000D82B0E94F602CF5FC730C1F68D2FCDB770
:1007D000DEB7E6E00C94102380E0F1CF0E949A048B
:1007E00090E090930701809306010E94F6020E9418
:1007F000E902E0ECF2E0119282E0EE3CF807D9F772
:100800000895259A2D9A0895269A2E9A0895279A42
:100810002F9A089556985E98089525982D980895D2
:1008200026982E98089527982F9808950E940A04D4
:100830000E940D040E9410040E941304089590E089
:10084000909389008093880090938B0080938A0016
:1008500090938D0080938C0008950E9416048FEF72
:100860000E941F040E9401042FEF80E792E02150B4
:1008700080409040E1F700C000000E9404042FEF88
:1008800080E792E0215080409040E1F700C00000F6
:100890000E9407042FEF80E792E0215080409040B3
:1008A000E1F700C000000E940D042FEF80E792E006
:1008B000215080409040E1F700C000000E941004E9
:1008C0002FEF80E792E0215080409040E1F700C098
:1008D00000000E9413040E941604089589EA809380
:1008E000800089E08093810024982C983F988AB1F9
:1008F0008F7C8AB96E98479A8BB180638BB9769A50
:100900000E94F30F6093AC027093AD028093AE022D
:100910009093AF0267702FEF629FC00111249595ED
:100920008795959587950E941F040E942D040E942B
:100930003E13089580E290E09093070180930601B2
:100940008091930181110EC00E94B91881E08093BB
:1009500093012FEF83ED90E3215080409040E1F729
:1009600000C0000064E670E080E40E94BF1890932D
:10097000070180930601892B09F04EC064E670E000
:1009800080E00E942D199093070180930601892B26
:1009900009F042C064E670E080E00E942D19909357
:1009A000070180930601892BB9F564E670E08FE3B7
:1009B0000E942D199093070180930601892B61F500
:1009C0000E94801964E670E080E40E94BF18909352
:1009D000070180930601892BF9F464E670E08CE04E
:1009E0000E942D199093070180930601892BA1F491
:1009F00064E670E080E00E942D19909307018093D7
:100A00000601892B49F464E670E08FE30E942D19FA
:100A100090930701809306010E948019809106013E
:100A200008951092AC021092AD021092AE02109294
:100A3000AF0284E080618093AC026091AC0270915F
:100A4000AD028091AE029091AF020E94F80F0E9419
:100A5000061008950E943F13089581E0089581E0F3
:100A600008950E942F05089508950E943405089561
:100A7000A5E0B0E0EEE3F5E00C94F72249835A8359
:100A80003091950189819A81311119C0662399F0BD
:100A9000222389F00E94B00B182F682F89819A8138
:100AA0000E948C0B69817A81812F0E941C122596ED
:100AB000E3E00C9413230E949E0B182FF3CF0E94A7
:100AC000B00B69817A81F1CFFC01262F40815181E1
:100AD0006281738184810E943805089581E00895C0
:100AE000CF93DF93EC0160E00E946405BE010E9499
:100AF0003505DF91CF9108950E946E0408950E94FC
:100B00002A05089508950E94DB090E9482052FEFAF
:100B100084E39CE0215080409040E1F700C0000059
:100B200008950E9483050E94A71B08950E948305D3
:100B30000E94D91B08950F931F93CF93DF938C01CD
:100B400061E00E946405EC01B8010E943105811149
:100B500006C080E0DF91CF911F910F910895B801F9
:100B6000CE010E9467188823A1F3B801CE010E942C
:100B70009C16882371F3B801CE010E94D9178823EF
:100B800041F3F8018281882361F0CB35FDE5DF0771
:100B900001F158F4C115ECE5DE0791F0CF3DDC45DD
:100BA00091F0C8010E942D05D5CFCD358DE5D80730
:100BB00069F090F0C83ADD45A1F70E949605C9CFCB
:100BC0000E949105C6CF0E946C10F7CF0E94B00F13
:100BD000E8CF0E94BA0FE5CF0E94BE0FE2CF0E947D
:100BE000DA1A0E940C0608950E9410060E94DE1A6E
:100BF000089508950E94F905089581E008950E94DE
:100C0000FD0508950895CF93C82F0E94FA058C2FF3
:100C10000E94FF05CF91089580E00E940306089589
:100C20000E948E190E94030608950E948E199091C9
:100C30009401981721F0809394010E94030608956F
:100C4000ABE0B0E0E6E2F6E00C94F8224F83588780
:100C500069877A878B8761110E94FB0E1E821D8235
:100C600085E0FE013796DE01119601900D928A957E
:100C7000E1F78C819D81892B61F449815A816B81D7
:100C80007C818D819E810E94240E2B96E2E00C9443
:100C9000142389819A8189238F3F79F3CE010196AC
:100CA0000E946E058111E9CFF0CFFC018081918116
:100CB0000E94EA0B0895CF93C82F8823C9F0823889
:100CC000C9F40E948E1981FD13C089E30E94B30EFE
:100CD0000E941C0F2FEF81EE94E021508040904045
:100CE000E1F700C0000089E30E94BB0E0E941C0FC8
:100CF000CF9108958338A1F40E948E1980FDF8CF1A
:100D000083E50E94B30E0E941C0F2FEF81EE94E04A
:100D1000215080409040E1F700C0000083E5E4CF1F
:100D20008438A1F40E948E1982FDE2CF87E40E94EC
:100D3000B30E0E941C0F2FEF81EE94E021508040F3
:100D40009040E1F700C0000087E4CECF8CEF8C0F1D
:100D5000813A90F46C2F80910801909109010E94D2
:100D6000001A882329F08C2F0E94BB0E0E941C0FB2
:100D70008C2F0E94B30EBACF80E28C0F883048F4DB
:100D8000C77081E001C0880FCA95EAF70E94DE0EA5
:100D9000ADCFEBE5EC0FE33040F4F0E0E45BFE4F69
:100DA000808190E00E94C019A3CFE8E5EC0FE73105
:100DB00050F4F0E0EE0FFF1FE25EFE4F8081918164
:100DC0000E94D61995CFCD3E08F492CF8C2F0E9469
:100DD0008F140E9462158CCF882309F455C0823885
:100DE00079F40E948E1981FF4FC089E30E94B30EEF
:100DF0000E941C0F89E30E94BB0E0E941C0F0895E5
:100E0000833859F40E948E1980FF3EC083E50E940A
:100E1000B30E0E941C0F83E5EECF843859F40E9474
:100E20008E1982FF31C087E40E94B30E0E941C0F0E
:100E300087E4E1CF9CEF980F913AE8F290E2980FA7
:100E4000983050F4877091E001C0990F8A95EAF7C5
:100E5000892F0E94E40ED1CF9BE5980F933028F4A0
:100E600090E080E00E94C019089598E5980F9731AE
:100E700028F490E080E00E94D61908958D3E20F07D
:100E80000E94E9140E94621508951F93CF93DF9387
:100E9000182FEB010E945B06209739F4812F0E94E6
:100EA000EC06DF91CF911F9108958FE99FE00197A4
:100EB000F1F700C000002197EFCF70E060E08933C8
:100EC00011F460E570E00E9445070895882321F041
:100ED0000E94DE0E0E941C0F0895882321F00E94BC
:100EE000E40E0E941C0F0895B0E0A0E0EAE7F7E0EE
:100EF0000C94F1226C01D62FC72FFC0112810581C1
:100F000002950F700E94D40EE82E8823B9F0E12ECE
:100F10001123A1F08C2F807F803421F080E28D0F8F
:100F20008830C8F08091B10282FF15C082E00E9433
:100F30007F0F0E94D40E91E0E82EE926BC2EB294D9
:100F40009FE0B922FBE0FB15B8F1EB2DF0E0EF5587
:100F5000FB4D0C94E222E12CF1CF0C2F0F70C07FDF
:100F600011F00295007F112399F0002359F080E2DF
:100F70008D0F883010F0D11107C0802F0E94DE0E37
:100F80000E941C0F8D2F5AC0802F0E94EE0EF8CFAA
:100F90008D2F0E94EC06002379F080E28D0F8830BF
:100FA00010F0D11104C0802F0E94E40E03C0802FE6
:100FB0000E94F40E0E941C0FEB2DE850FF0B34979B
:100FC00020F40E948E190E940306EE2089F00E94F0
:100FD000D00E80FD0DC0F60112820E94CA0E0E9442
:100FE000940AC6010E949B090E94CA0E0E94B60A7A
:100FF000CDB7DEB7E9E00C940D232C2F2F70F22E25
:10100000C07FC03219F0F29480EFF822DD2341F066
:10101000D130E9F1112309F444C00023E9F1B2CF42
:101020008091B10282FD15C0112359F0FF2029F0F3
:101030008F2D0E94DE0E0E941C0F80E00E945B0636
:10104000BBCF80E00E94EC06FF2009F4B5CF8F2DC6
:10105000ABCF112381F0011106C00E94FE0E8F2933
:101060000E946607A9CF0130C1F70E94FE0E8F29AA
:101070000E94050FA1CF011106C00E94120F8F2DF3
:101080000E946D0799CF013009F496CFF6CF112356
:1010900029F0023008F090CF8F2DE2CF01118CCFD4
:1010A000EECF002361F3D93349F43FEF87EE93E0AD
:1010B000315080409040E1F700C000008D2F0E9429
:1010C000EC067ACF8C2F86958695837069F08130F7
:1010D00009F072CF8D2F9C2F9370111102C090E0F8
:1010E00080E00E94D61968CF8D2F9C2F937011112C
:1010F00002C090E080E00E94C0195ECF8D2F1123C6
:1011000029F00E948F140E94621556CF0E94E914A4
:10111000FACF8C2F837009F041C011114DCF4D2FA4
:10112000429546954770440F440F0D2F0F7010E005
:1011300030E020E0042E04C0000F111F221F331FD7
:101140000A94D2F760E070E0CB01D4FF0FC06FE0EB
:1011500070E080E090E004C0660F771F881F991F41
:101160004A95D2F76095709580959095C695C695ED
:10117000C370602B712B822B932BC23049F058F433
:10118000C13019F00E943F0A17CF0E942C0A14CFD9
:101190000E94520A11CF0E94290A0ECF8695112370
:1011A00011F08C2F8170882309F406CF4D2F4295C2
:1011B00046954770440F440F0D2F0F7010E030E03C
:1011C00020E0042E04C0000F111F221F331F0A94B9
:1011D000D2F760E070E0CB01D4FF0FC06FE070E0A9
:1011E00080E090E004C0660F771F881F991F4A9522
:1011F000D2F76095709580959095C695C695C37009
:10120000602B712B822B932BC23049F058F4C130E4
:1012100019F00E940F0BD0CE0E94FC0ACDCE0E9486
:10122000220BCACE0E946B0AC7CECF70112329F0C1
:101230008C2F0E94940A8D2F13CF8D2F0E946D0743
:101240008C2F0E94B60AB8CED23F39F160F4D03F5D
:10125000B9F0D13F81F0112309F445C0011192CEBC
:101260008C2F8F711EC0D33FF9F0D43FA1F780912E
:10127000B10282FD23C08C2F8F71112311F311C095
:10128000112339F0011198CE8C2F8F710E94DA0A48
:1012900093CE023008F090CEF7CF8C2F8F711111C2
:1012A000D0CF0E94940A88CE112329F08C2F8F7101
:1012B0000E947E0A81CE0E94780A7ECE112349F0D8
:1012C000CF718C2F0E94940A63E08C2F0E94610FD3
:1012D00073CE81E00E947F0F023008F46DCE82E071
:1012E0000E947F0F69CE002359F0D93309F0E6CE72
:1012F000EFEFF7EE23E0E150F0402040E1F7DCCEE5
:101300008C2F8F719ECF0F931F93CF93DF93EC01A0
:10131000688179818A810E94F50B8C010E94350BCE
:101320000E94280AB801CE010E947407DF91CF9174
:101330001F910F910895CF93DF93EC018B819C81D6
:10134000892B29F08881998189238F3F51F4DF917E
:10135000CF910895CE010E948309CE010E947005AD
:10136000F6CFCE010E949B058111F4CF0E94D40ECE
:10137000882369F38A81882351F38091B10282FF27
:10138000E6CF82E00E947F0FE2CF90E080E00E94F3
:10139000C01990E080E00E94D6190E94FB0E0E94C6
:1013A0001C0F0E947E150E94621508950E94C30EB4
:1013B0000E94C50908950E94EB0E0E94D609089567
:1013C00092959F70963091F058F4925F9F70923092
:1013D00058F4803F19F030F4883E30F481E00895ED
:1013E0009A5FF4CF843FD1F380E00895883EB0F354
:1013F000813FD1F7F3CFFC01808191810E94EA0BFC
:101400000E94E0090895A5E0B0E0E9E0FAE00C945C
:10141000F8222596E2E00C941423A6E0B0E0E3E184
:10142000FAE00C94F8222696E2E00C941423089536
:101430000E94170A08950E94180A6093D1017093C0
:10144000D2018093D3019093D4010E94C5090895DD
:1014500008950E941B0A08950F931F930091D101D4
:101460001091D2012091D3013091D401602B712BC6
:10147000822B932B0E941B0A1F910F9108950F93AB
:101480001F930091D1011091D2012091D30130918D
:10149000D40160237123822393230E941B0A1F918E
:1014A0000F9108950F931F930091D1011091D201D4
:1014B0002091D3013091D40160277127822793278F
:1014C0000E941B0A1F910F9108950E94170A089508
:1014D0000E94650A08950E94680A6093CD01709386
:1014E000CE018093CF019093D0010E94C509089549
:1014F00060E070E0CB010E946B0A08950F931F9388
:1015000041E050E060E070E08A019B0104C0000F00
:10151000111F221F331F8A95D2F7C901B8010E94FB
:101520006B0A1F910F9108950F931F9341E050E0B4
:1015300060E070E004C0440F551F661F771F8A9556
:10154000D2F78091CD019091CE01A091CF01B091C1
:10155000D0018A019B01082B192B2A2B3B2BC90197
:10156000B8010E946B0A1F910F9108950F931F936A
:1015700041E050E060E070E004C0440F551F661F7A
:10158000771F8A95D2F7CB01BA0160957095809547
:1015900090950091CD011091CE012091CF01309115
:1015A000D00160237123822393230E946B0A1F9131
:1015B0000F9108950F931F9341E050E060E070E0B9
:1015C00004C0440F551F661F771F8A95D2F780917C
:1015D000CD019091CE01A091CF01B091D0018A01AF
:1015E0009B01082719272A273B27C901B8010E9418
:1015F0006B0A1F910F9108950F931F930091CD01D6
:101600001091CE012091CF013091D001602B712B30
:10161000822B932B0E946B0A1F910F9108950F93B9
:101620001F930091CD011091CE012091CF013091F7
:10163000D00160237123822393230E946B0A1F91A0
:101640000F9108950F931F930091CD011091CE013A
:101650002091CF013091D0016027712782279327F5
:101660000E946B0A1F910F9108950895262F2770ED
:1016700091E001C0990F2A95EAF723E076956795E6
:101680002A95E1F725E0269FF001279FF00D112410
:10169000E40FF51F50E040E0682F70E08191DF011A
:1016A00011979B01042E02C0369527950A94E2F704
:1016B000217021952827292328272C934F5F5F4FDE
:1016C0004530510559F70895A82FA77023E0969546
:1016D00087952A95E1F725E0289FF001299FF00DD5
:1016E0001124E60FF71F50E040E080E0219130E048
:1016F0000A2E02C0369527950A94E2F72170332707
:10170000042E01C0220F0A94EAF7822B4F5F5F4F2D
:101710004530510559F70895262F9E3070F48630D4
:1017200060F4682F70E086E0989F600D711D1124B1
:1017300046E951E0822F0E94360B0895292F9E30F2
:1017400068F4863058F490E066E971E036E0239F53
:10175000800D911D11240E94640B089580E008956E
:10176000B0E0A0E0E6EBFBE00C94F1228C01C0902D
:10177000CD01D090CE01E090CF01F090D0018091CA
:10178000D1019091D201A091D301B091D401C82A86
:10179000D92AEA2AFB2ACFE1D0E0BC2ED701C60124
:1017A0000C2E04C0B695A795979587950A94D2F705
:1017B00080FD09C0219788F7B12C8B2DCDB7DEB7FE
:1017C000E9E00C940D23B8018C2F0E943712019789
:1017D00089F3F3CFCF93DF93EC010E94B00BBE01EE
:1017E0000E943712DF91CF9108951F93CF93DF931B
:1017F000EB0190919501992339F0CB010E94EA0BFE
:10180000DF91CF911F910895882369F0CB010E9449
:10181000B00B182F682FCE010E948C0BBE01812FB8
:101820000E943712EDCFCB010E949E0B182FF6CFEE
:101830001F93CF93DF93C091D50116E08091D6011D
:101840008C1304C0DF91CF911F910895D0E01C9FAD
:10185000F0011D9FF00D1124E952FE4F408151818E
:1018600062817381848195810E940D0A2196C770DF
:10187000E5CF4091070250910802609109027091F2
:101880000A0280910B0290910C020E940D0A0895A9
:101890001F93CF93DF9380910C02807F09F049C0A2
:1018A00080910902882309F444C08091D501C09138
:1018B000D6016091070270910802A0910A02B091CE
:1018C0000B02D62FD72316E0C81799F190E0109796
:1018D00011F0DF3F19F401968770F6CF189F900141
:1018E000199F300D1124F901E952FE4F4181471330
:1018F000F2CF40814613EFCF42814111ECCF4381BB
:1019000054814A1B5B0B483C510528F780910C021F
:101910008F70806180930C02F901E452FE4F808148
:101920008F708061808387E092E00E949B090E9413
:10193000180CDF91CF911F910895A1E1B0E0E3EA87
:10194000FCE00C94F0228C0185E0F801DE011D968C
:1019500001900D928A95E1F7F801E28087E0C82EA8
:1019600082E0D82E60910A0270910B026115710518
:1019700009F44EC19091070220910802892F822319
:101980008F3F09F445C140815181A380B480F0901C
:101990000902F501E61BF70BFF2009F4EAC080916C
:1019A0000C02382F307FE83CF10508F0A3C031115C
:1019B0006DC0FE2C251316C0941314C0E11012C084
:1019C0008F70806180930C020E94390CC6010E94C6
:1019D0009B0980910C02F80185838F2D6196EAE0C6
:1019E0000C940C23A114B10429F0842F85238F3F7C
:1019F00009F027C180E0F82FF170DF2E80FF3CC096
:101A00008091D5012091D60136E0821315C04D8713
:101A10005E878D859E850E94EA0B292F22952F7067
:101A20002230F0F0243018F59F70F1F0F801958124
:101A3000907FD1F4D12C1EC090E0389FF001399FE7
:101A4000F00D1124E952FE4F6181651306C06081DB
:101A5000641303C06281E6120FC001968770D5CF70
:101A60009F7011F0882331F3805E883018F3C8012D
:101A70000E949B09FD2CB1CFEE2009F4AECF8091DE
:101A80000C02816080930C02F12CA7CF251306C0B5
:101A9000941304C0F801EE2009F487C0C8010E9425
:101AA000FB09882319F1EE2009F180910C028032A4
:101AB00070F0209107023091080238872F83198631
:101AC000BB86AA868C87CE0107960E949B0986E07A
:101AD000F801A7E0B2E001900D928A95E1F70E942B
:101AE000480C0E94390CFF24F39477CFC8010E9460
:101AF0009B09F9CF311113C07A2DB98AA88A6E2DAE
:101B000089890E94030A87E092E00E949B0986E08F
:101B1000F60111928A95E9F70E94390CB5CF251389
:101B20000FC094130DC0E1100BC0F8018583C801EC
:101B30000E949B0986E0F60111928A95E9F74DCF44
:101B4000C8010E94FB09882389F2EE2079F2809176
:101B50000C02803208F4BBCF2091070230910802BA
:101B60003A8329831B82BD82AC828E83CE0101968B
:101B7000ACCFE83CF10508F03EC0FE2CEE2009F4A5
:101B8000B5CF25132AC0941328C080910C0280FD84
:101B90001BC0982F907FC1F0F8018583903F31F0F2
:101BA000982F907F905F8F70892B8583C8010E944A
:101BB0009B0986E0F801A7E0B2E001900D928A95BA
:101BC000E1F70E94390C09CF86E0F801A7E0B2E006
:101BD00001900D928A95E1F700CFC8010E94FB09A0
:101BE000811175CF80910C02816080930C02C80135
:101BF0000E949B09F2CE7A2DB98AA88A6E2D898916
:101C00000E94030A86E0F60111928A95E9F7D9CF7E
:101C1000EE2009F46BCFC8010E94FB09F82E88233F
:101C200009F464CF86E0F801A7E0B2E001900D92DC
:101C30008A95E1F787E092E00E9455060E94480CE1
:101C4000C0CF81E08E25D7CEACE0B0E0EAE2FEE086
:101C50000C94F7224F83588769877A878B879C87F4
:101C6000CE0107960E949D0C882369F08A859B858A
:101C7000892B39F04F815885842F85238F3F09F0B8
:101C80006BC016E05FC086E0FE013796DE0111965C
:101C900001900D928A95E1F78A859B85892B89F3BE
:101CA00088859F8189238F3F61F32091D60130E0A1
:101CB000C9010196877099274091D50148171906E7
:101CC00071F40E94DB091092D6011092D50186E0D2
:101CD000E7E0F2E0DF011D928A95E9F7D2CF96E0C6
:101CE000929FD001939FB00D1124A952BE4FFE01C7
:101CF000319601900D929A95E1F78093D6010E945A
:101D0000180CBFCF819FC001112489529E4F0E94A1
:101D10009D0C8823E9F0E091D5011E9FF00111246C
:101D2000E952FE4F408151816281738184819581A6
:101D30000E940D0A8091D50190E001968770992745
:101D40008093D5018091D5019091D6018913DACF86
:101D50002C96E3E00C94132369857A858B859C850A
:101D60000E940D0A8ECF682F809108019091090181
:101D70000E94801A0895682F8091080190910901AE
:101D80000E948E1A089580910801909109010E9485
:101D90009C1A089580912D028595859585950895C5
:101DA00080912D028770089590912D02977081E0A7
:101DB00009F480E0089580915002089590915002B6
:101DC000892B80935002089580959091500298231A
:101DD00090935002089510925002089590914F02EE
:101DE000892B80934F020895809590914F029823FC
:101DF00090934F02089510924F02089580912E0201
:101E0000089508950E94010F08959091B10292FFE4
:101E100008C090912E02981721F080932E020E9404
:101E2000020F089580912E02882329F010922E022D
:101E300080E00E94020F0895CF93DF93E0910801A4
:101E4000F0910901809150028083E0910801F091A6
:101E50000901808190914F02892B808390912E02FD
:101E6000992381F0E0910801F09109018081892B8B
:101E7000808380910801909109010E94EC198111E1
:101E80000E94120FC0910801D091090140E250E078
:101E90006DE072E0CE010E944A24892B59F080E265
:101EA000FE01ADE0B2E001900D928A95E1F7CE011E
:101EB0000E949B19DF91CF91089508950E945D0FB4
:101EC00008959091B10292FF11C098E0899F90010E
:101ED0001124622B60932D020E94940A80912D029E
:101EE0008595859585950E945E0F08950E94940AB8
:101EF000089510922D0280E00E945E0F0895909147
:101F00002D028095892380932D02282F277091F42C
:101F1000282F082E000C330B9217130659F09091BE
:101F2000B10292FF07C08595859585950E94B60AF6
:101F30000E94790F08959091B10292FB222720F917
:101F4000281769F080FB92F99093B1028091B0025A
:101F50009091B1020E94E50F82E00E947F0F0895E8
:101F60008091B10282FB882780F991E089270E9445
:101F70009B0F089581E00E949B0F089580E00E94CE
:101F80009B0F089590E080E00E94652421E0883E48
:101F90009E4F09F020E0822F089582E090E00E9499
:101FA0005724089583E090E00E9457240895CF932A
:101FB00084E090E00E945724C82F82E290E00E94C3
:101FC0005724982F8C2FCF910895CF93C92F682F26
:101FD00084E090E00E946B246C2F82E290E00E94EB
:101FE0006B24CF9108958FE090E00E945F240895C4
:101FF000AB01BC018FE090E00E947D240895AB010D
:10200000BC0183E190E00E947D24089560E070E0CF
:10201000CB010E94FF0F089568EE7EEF90E080E014
:102020000E94892460E082E090E00E946B2460E0DE
:1020300083E090E00E946B241092D1011092D201B3
:102040001092D3011092D40160E084E090E00E94ED
:102050006B2464E082E290E00E946B2460E085E003
:1020600090E00E946B2460E086E090E00E946B2488
:102070006FEF87E090E00E946B2440E050E0BA01EF
:1020800088E090E00E947D2460E08DE090E00E9476
:102090006B2440E050E0BA0188E190E00E947D248A
:1020A00060E087E190E00E946B2440E050E0BA01DC
:1020B0008CE190E00E947D2470E060E080E290E09E
:1020C0000E94892440E050E0BA0188E190E00E943B
:1020D0007D240E94110508950E940C100895682F18
:1020E0008EE090E00E946B2408950E94681B60932C
:1020F000630270936402809365029093660260931A
:102100005F0270936002809361029093620208956F
:10211000089508950E948910089508950E948D10D1
:10212000089586E193E10E9484190E9488100E941C
:102130008A10089581E008950E949A1008950895E4
:1021400008950E949F100E94A01008950E941913E4
:102150000E94020608950E94531B0E9447130E948A
:10216000A6100E948E100895AAE0B0E0EAEBF0E11C
:102170000C94EE220E945913982E81110E94751022
:1021800081E5A82E82E0B82E10E000E0802E802F9E
:102190000E944013E82EF501C1905F01C816B1F10D
:1021A0008091670281FD0E944613D12CFF24F39495
:1021B000CE248C2D8F2129F10E949C10882399F028
:1021C000DE828F82EF2081E009F480E088870E9420
:1021D0005C1B8160782F9A8789874E815F81688533
:1021E0008A850E942006F801EF5AFD4F8081F8266B
:1021F000F08281E0911001C080E02A96ECE00C941E
:102200000A23D394FF0CF6E0DF12D3CF0F5F1F4FEA
:102210000E30110509F0BACF8FEF89838A831B82B4
:102220000E945C1B8160782F9D838C8349815A8139
:102230006B818D810E942006DCCF0E94B4100E9429
:10224000A0150E9415060895CF93DF930E943C12BB
:10225000EC01811521E5920708F042C0811530E5B7
:10226000930708F09DC0883E910530F5803E9105AA
:1022700008F092C0883A910588F4853A910508F0F3
:1022800084C08130910509F487C0009709F484C0A7
:10229000049708F081C0D0E0C0E07EC08F3B91057C
:1022A000D0F7C85AD0E0CC0FDD1FC15BDE4F0990DC
:1022B000D881C02DD46470C08115904250F4C115EE
:1022C00081E0D80708F068C0CD3ED10520F3D06585
:1022D00063C0C11590E4D907F0F2DF70D06A5CC02A
:1022E000811525E5920700F5811534E5930708F07F
:1022F0008BC0811543E5940708F073C0C11582E5D2
:10230000D80708F469C0CE018370992721E030E036
:1023100002C0220F331F8A95E2F7C695C69580E268
:10232000C89FE001112454C0C11599E5D907A8F44C
:10233000C11528E5D20708F06CC0C11536E5D307F2
:1023400008F0A9CF8C2F0E94D312C82FD0E0DC2F29
:10235000CC27CC27DF71D0621FC0C1154AE5D40756
:1023600008F45CC0CE0190568115904208F093CFDE
:102370008D2F8F710E94D31290E0982F8827882785
:102380009F719C012C2BE901E6CFC55AD0E0C358C0
:10239000DE4FC881D0E0D064CE01DF91CF910895A7
:1023A000E4E096958795EA95E1F783702C2F2695C2
:1023B0002695237040E2249F90011124382B8C2F06
:1023C0008370C1E0D0E002C0CC0FDD1F8A95E2F738
:1023D000C22BD32BDC68E0CFDC2FCC27C16FD06AB7
:1023E000DBCF8370992721E030E002C0220F331F3A
:1023F0008A95E2F7C695C69590E2C99FE00111243F
:10240000C22BD32BDA68C8CFD82FCC27C46FD06AA1
:10241000C3CFDC2FCC27C06FD06ABECF8C2F8F707C
:102420000E94D31234E0D695C7953A95E1F7CF7064
:102430009C2FEC01D069B0CF972F7E30A8F4663086
:1024400098F470E026E0929F600D711D1124FB014D
:1024500094E5899FE00DF11D1124EE0FFF1FE45557
:10246000FF4F85919491089580E090E008950E9437
:102470001C120E942411089582389105B1F1B0F424
:102480008133910509F475C048F48932910509F446
:1024900069C08A32910509F473C0089585339105A6
:1024A00009F459C08933910501F10895833E9105DE
:1024B000A9F138F4803E9105F9F0823E910549F189
:1024C0000895863E9105A9F1873E9105C9F1843EA4
:1024D000910519F52091B10221FF1FC08091B00232
:1024E00084FD14C087EE90E008952091B00223701F
:1024F000A1F080EE90E008952091B00220FD47C049
:102500003091B10230FF09C024FF44C090E080E068
:1025100004C02091B00222FDF7CF08952091B002AF
:1025200022FD3BC03091B10230FDE3CF24FFF5CF57
:10253000EDCF2091B00223FFF0CF24FDE7CFD2CF23
:102540002091B00223FD2CC03091B10231FFEECFBB
:1025500084EE90E008952091B00225FFDECF89E25D
:1025600090E008952091B00225FFD7CF85E390E059
:1025700008952091B00226FFD0CF8AE290E008951E
:102580002091B00226FFC9CF81E390E0089589E34E
:1025900090E0089583EE90E0089582EE90E0089533
:1025A00086EE90E008959091B00292FF06C0282F29
:1025B00028712830F9F4877F846093FF06C0282FA4
:1025C00028712831F1F4877E84612091B10220FFC7
:1025D00006C0382F38713830D9F4877F816021FFE9
:1025E00006C0282F28712831D1F4877E816194FD9F
:1025F000877E0895282F24712430F9F68B7F886018
:10260000DCCF282F2471243101F78B7E8861DDCF48
:10261000382F3171313019F78E7F8860E0CF282F45
:102620002171213121F78E7E8861E1CF80E008950C
:1026300008950E94C20F811102C00E946C100E9476
:10264000CD0F809367020E94D70F9093B1028093C1
:10265000B0020E9418130E94D20F682F70E090E021
:1026600080E00E94290A6091CD017091CE01809195
:10267000CF019091D0010E94680A089508950895AD
:10268000E82FF0E0E054FD4F8081089508950E9406
:102690009003E2EBF2E0A0ECB2E011921D9282E036
:1026A000E03CF807D1F78EE00E946C130E947C0595
:1026B0000895CF9382EB92E00E949C03C82F282FAD
:1026C0004EE060EC72E082EB92E00E947F130E9489
:1026D0007F058C2FCF910895CF93C82F90E00E9453
:1026E0001F2380936B0290936C02282FFC018E2F86
:1026F000821B8C1710F0CF9108951192F8CFB0E0A3
:10270000A0E0E5E8F3E10C94F322082FF92EE62E81
:10271000D72E142FC22FD0916802DD2309F448C0B0
:102720000E945C1B2091690230916A02AC01421B3D
:10273000530B9A0190936A02809369024F3F5105AF
:1027400009F0C8F4452B99F01092680210926D02BE
:1027500040916B02E42FF0916C0290E030E08E2FFC
:10276000841B811758F03093680290936D02C11159
:102770002DC0CD2F1FC02FEF30E0E6CF8081882302
:1027800021F0281720F010829D2F3196E8CF821B70
:1027900080833D2FFACF29914C91421731F040812F
:1027A000411103C030832C9381E0319611961AC0F9
:1027B000211106C080916D028823D1F0C11106C09D
:1027C0000E945C1B90936A028093690290916B0255
:1027D00080916802AE2DBD2DC02FDF2DE92FF09125
:1027E0006C023EE12E2F291B2117A8F2809368026C
:1027F000CDB7DEB7E7E00C940F230E94961D0E9430
:10280000AB100E94A31D08950E94A81D0E941D11D7
:102810000E94C21D08950E94F51A0E947C1D0E940C
:1028200091100E94FD130E9404140E94A110FBCF7E
:102830008091750280FF0DC060910F0170E0660FFE
:10284000771F6038710570F56115710569F1862F84
:10285000089581FF07C060910F0184E0689FB00177
:102860001124EFCF60910F0182FD0AC080917402A4
:102870008823A9F020910E0160910F01821710F0BA
:1028800088E0ECCF869FC001112433E0880F991FA8
:102890003A95E1F7622F70E00E94CE22D2CF68E035
:1028A00070E0D5CF8FE7089581E00895809175029B
:1028B00080FF0CC060910B0170E075956795759570
:1028C00067956115710549F1862F089581FF06C04E
:1028D00060910B0170E075956795F3CF60910B01E6
:1028E00082FD0BC0909173029923A1F060910A01BF
:1028F00080910B01961738F0682F70E060387105F1
:1029000000F38FE70895899FC001112470E00E94B1
:10291000CE22F4CF61E070E0D7CF81E008958D3E04
:1029200031F40E94181481958093780208958E3EA8
:1029300019F40E941814F8CF8F3E31F40E94181435
:102940008195809377020895803F19F40E941814AE
:10295000F8CF893F29F40E94561480937902089594
:102960008A3F21F40E9456148195F7CF8B3F31F4B2
:102970000E945614819580937A0208958C3F19F431
:102980000E945614F8CF9FE0980F983070F4815F42
:10299000990B21E030E001C0220F8A95EAF780917F
:1029A0007602822B8093760208958D3F31F48091D8
:1029B000750281608093750208958E3F21F48091A5
:1029C00075028260F7CF8F3FB9F7809175028460FE
:1029D000F1CF409177028D3E59F48091780287FFC4
:1029E0000DC01092780241110BC01092740208C001
:1029F0008E3E81F48091780218169CF3442381F076
:102A00008091790290917A02892B09F05AC0109234
:102A1000730208958F3E49F447FFF0CF109277027A
:102A2000809178028111ECCFE0CF803F19F4141629
:102A3000ACF3E4CF90917902893F29F41916F4F6AA
:102A400010927902DBCF8A3F19F497FFD7CFF8CFE6
:102A500090917A028B3F29F497FFD0CF10927A029F
:102A6000CDCF8C3F19F41916CCF3C8CF9FE0980F47
:102A7000983090F4815F990B21E030E0B90102C0F9
:102A8000660F771F8A95E2F7CB01809590917602C9
:102A9000892380937602B2CF8D3F31F48091750205
:102AA0008E7F80937502AACF8E3F21F480917502AC
:102AB0008D7FF7CF8F3F09F0A1CF809175028B7F7B
:102AC000F0CF08950E945C1B9C0190917702809149
:102AD0007802982B21F0309372022093710290912A
:102AE000790280917A02982B21F030937002209322
:102AF0006F0286E792E00E94B519089585E0E6E747
:102B0000F2E0DF011D928A95E9F7109274021092AB
:102B10007302109275020895FC01818181110EC02B
:102B2000828181110BC08381811108C091E0848171
:102B3000811101C090E0892F8170089581E0FCCF60
:102B4000A5E0B0E0E6EAF5E10C94F72285E0E6E7DF
:102B5000F2E0DE01119601900D928A95E1F7109254
:102B60007702109278021092790210927A028A818A
:102B70009B81892B89F080917102909172020E9451
:102B8000741BAC01909174029923C9F180911001DA
:102B90008417150608F440C08C819D81892B91F023
:102BA00080916F02909170020E94741BAC01909111
:102BB0007302992309F471C080910C0184171506E2
:102BC00008F479C0BE016F5F7F4F86E792E00E94F4
:102BD000AE1A811105C086E792E00E948C15811122
:102BE0000E94621585E0FE013196A6E7B2E00190F1
:102BF0000D928A95E1F72596E3E00C94132320913A
:102C00006E028AE0289F900111242417350720F6D0
:102C10009F5F9093740202C09F3FD1F71A811123E6
:102C200059F00E9418149FEF11160CF491E0899F3F
:102C3000802D1124809377021B81112359F00E946B
:102C400018149FEF11160CF491E0899F802D112428
:102C50008093780230917702332309F49DCF20913D
:102C60007802222309F498CF45EB3403C0011124E4
:102C7000992359F09093770245EB24039001112496
:102C8000332339F03093780287CF81E08093770245
:102C9000F3CF81E0809378027FCF20910D018AE00D
:102CA000289F900111242417350708F08BCF9F5FD0
:102CB0009093730202C09F3FD1F71C81112359F0FA
:102CC0000E9456149FEF11160CF491E0899F802DFD
:102CD0001124809379021D81112359F00E9456140A
:102CE0009FEF11160CF491E0899F802D11248093A1
:102CF0007A0230917902332309F464CF20917A0269
:102D0000222309F45FCF45EB3403C001112499233A
:102D100059F09093790245EB240390011124332359
:102D200039F030937A024ECF81E080937902F3CF6D
:102D300081E080937A0246CFCF93DF93EC01FB01D1
:102D40008281882309F433C1C430FDE5DF07C0F573
:102D5000CB3F9CE5D90730F49E0122503C452431FD
:102D60003105B0F50E94D70F9093B1028093B00265
:102D7000C1318CE5D80709F4EEC008F069C0C9304C
:102D8000ECE5DE0709F4D5C0C8F5C5308CE5D807F9
:102D900009F4C7C000F5C330ECE5DE0709F4B9C09B
:102DA00008F0BBC0C230DC4509F4ADC08091B00270
:102DB0009091B1020E94E50F0E94DB0980E008C0FB
:102DC000C236EDE5DE0771F2C63AFDE5DF0751F2E6
:102DD000DF91CF9108958091B0028062C7309CE569
:102DE000D90709F493C08091B0028061C830DC45F6
:102DF00008F48CC08091B002806488C08091B002D9
:102E00008B7FCD30FCE5DF0709F480C098F480911A
:102E1000B0028E7FCB309CE5D90709F477C0809152
:102E2000B0028C60CC30DC4508F470C08091B002F8
:102E30008D7F6CC08091B0028F7ECF30FCE5DF07C4
:102E400009F464C008F47BC08091B0028F7D5EC03D
:102E5000CE3F9CE5D90709F47AC050F5C531FCE5B1
:102E6000DF0709F486C098F48091B002837FC331F4
:102E70009CE5D90709F44AC008F471C00E94DB0937
:102E80009091B002892F97FB87F980583FC0CC3FC3
:102E9000FCE5DF0709F449C008F055C08091B10294
:102EA0008160CB3FDC4509F081CF8093B1027ECFBA
:102EB000C230EDE5DE0709F468C0A8F4C1158DE560
:102EC000D80709F452C08091B1028360C130DD455A
:102ED00060F38091B102982F909591708E7F892B2D
:102EE00090FB81F9E2CFC236EDE5DE0709F451C06F
:102EF000C63AFDE5DF0709F453C0C330DD4509F0EC
:102F000055CF80E043C08091B00281608093B002D1
:102F10004DCF8091B0028260F9CF8091B002846081
:102F2000F5CF8091B0028860F1CF8091B1028260CC
:102F3000BCCF0E94DB098091B0028068E7CF80910E
:102F4000B002877FE3CF8091B1028E7FAECF8091B8
:102F5000B1028D7FAACF8091B0028F7BD7CF0E9424
:102F6000DB098091B0028F77D1CF8091B1028C7F45
:102F70009CCF8091B00282FB992790F921E09227A3
:102F800090FB82F990FB83F9C1CF81E00E946F1022
:102F90000DCF9091B002892F8F7E94FF8061B6CFC4
:102FA0009091B002892F8E7F90FF8160AFCF81E03A
:102FB0000FCFCF93DF93EB0186319C4511F50E9433
:102FC000DB0E9A81992399F08A7A91E009F490E0D6
:102FD00090937B02811109C089E20E94B30E0E9486
:102FE0001C0F80E0DF91CF91089585E3F6CF8091AB
:102FF0007B02811104C089E20E94BB0EF0CF85E301
:10300000FBCF81E0EFCF0F931F93CF93DF93C42FBC
:10301000D22FFC0182818823C9F040937E020E9456
:103020005C1B90937D0280937C0280E28C0F883041
:1030300040F4C77081E001C0880FCA95EAF70E948A
:103040006607DF91CF911F910F91089510917E0235
:10305000141332C080917C0290917D020E94741BF7
:10306000883C910548F5C0E2CD0F1D17B9F080E20C
:10307000810F883040F4177081E001C0880F1A95E5
:10308000EAF70E946D07C83048F481E09D2F9770E1
:1030900001C0880F9A95EAF70E946607802F0E9468
:1030A0005D07C83070F6D77081E001C0880FDA95EF
:1030B000EAF70E946D07C5CF80E28C0F883008F6D2
:1030C000C77081E001C0880FCA95EAF7F2CF0F936D
:1030D0009C01CB01243F4CE5340759F1A8F4293D6C
:1030E000FCE53F0701F12A3D4CE53407D1F1283DCD
:1030F0003C4591F406E221EE41EE68ED7CE50E944C
:10310000031880E00F910895263FFCE53F07E9F0A2
:10311000B0F0273F3C45F9F0FC018281882339F16A
:1031200010927E02EFCF07E225EE45EE69ED7CE5D9
:10313000E6CF06E221EE40EE64EF7CE5E0CF07E269
:1031400025EE44EE65EF7CE5DACF06E221EE42EEB5
:1031500066EF7CE5D4CF07E225EE46EE67EF7CE52F
:10316000CECF08E221E045EE6AED7CE5C8CF81E0F4
:10317000C9CF1092B9008CE08093B8000895B0E0F8
:10318000A0E0E5ECF8E10C94EF22B82EEB010E94F0
:103190005C1B6C01EE24E394F12CC431D10560F08A
:1031A00025E0E22EF12CCF3FDC0731F0CE0164E1C7
:1031B00070E00E94BA227B0184EAA82E94E8992E3E
:1031C0001092BC00A092BC000E945C1B8C018091FC
:1031D000BC0087FF0DC08091B900887F883001F165
:1031E0008091B900887F8031D9F00FEF1FEF09C0BF
:1031F0000E945C1B801B910B8E159F0540F30EEF08
:103200001FEFCF3FDC07E1F2C6010E94741B8C1751
:103210009D07B0F2C801CDB7DEB7EBE00C940B23ED
:10322000B092BB009092BC000E945C1B8C0180910C
:10323000BC0087FF0AC08091B900887F883111F0F7
:10324000803499F610E000E0E5CF0E945C1B801B03
:10325000910B8E159F0558F3D2CF0F931F93CF93E9
:10326000DF93EB018093BB0084E88093BC000E9455
:103270005C1B8C018091BC0087FF11C02091B900BC
:10328000287F81E090E0283211F490E080E0919571
:1032900081959109DF91CF911F910F910895CF3FB3
:1032A000DC0741F30E945C1B801B910B8C179D0770
:1032B00008F38EEF9FEFEECF0F931F93CF93DF9323
:1032C000EC0184E88093BC000E945C1B8C0180911F
:1032D000BC0087FF08C08091BB0090E0DF91CF91D8
:1032E0001F910F910895CF3FDC0789F30E945C1B6B
:1032F000801B910B8C179D0750F38EEF9FEFEECF45
:1033000084E98093BC00089590939101809390018B
:10331000089590938402809383020895E09183023C
:10332000F0918402309729F00190F081E02D099509
:10333000089580E00895E0918302F091840230972F
:1033400099F020911D01222359F02091B00227FF0E
:1033500007C0DC012C9111962C93119726E02C9339
:103360000280F381E02D09950895E0918302F091A8
:103370008402309721F00480F581E02D09950895AD
:1033800020918102309182022817390771F09093C1
:10339000820280938102E0918302F091840230974F
:1033A00021F00680F781E02D0995089520917F0294
:1033B000309180022817390771F090938002809332
:1033C0007F02E0918302F0918402309721F0008423
:1033D000F185E02D09950895FC01329680911D013B
:1033E000882321F08091B0029EE187FF96E080E083
:1033F000915008F4089521912223D1F38F5FF8CFE3
:10340000662301F120911D012223F1F02091B002E9
:1034100027FF1AC0462F4695469546954E3190F4A3
:10342000677021E030E002C0220F331F6A95E2F797
:10343000840F911DFC01828190E02823392381E0D3
:10344000232B69F480E00895FC01329608962191BF
:10345000261721F0E817F907D1F7F4CF81E0089596
:103460009C01FC0132969FEF80E04191461751F09C
:103470009F3F19F4411101C0982F8F5F8630A9F743
:103480009F3F09F40895290F311D97FD3A95F901E1
:1034900062830895FC01329608962191261303C099
:1034A000DF0111971C92E817F907B9F70895E62F85
:1034B000E695E695E695EE3168F4E80FF92FF11DF3
:1034C000677021E030E001C0220F6A95EAF782813F
:1034D000822B82830895E62FE695E695E695EE31F8
:1034E00070F4E80FF92FF11D677021E030E001C0A2
:1034F000220F6A95EAF72095828128232283089576
:1035000020911D01222339F02091B00227FF03C032
:103510000E94571A08950E94301A089520911D01A3
:10352000222339F02091B00227FF03C00E946B1ABA
:1035300008950E944A1A0895FC01329680911D0157
:10354000882351F08091B00287FF06C08EE1DF0131
:103550001D928A95E9F7089586E0F9CF45E050E09D
:103560000E944A2421E0892B09F420E0822F08954B
:1035700008950E94B81A0895811106C081E08093D1
:1035800085020E94B91A089582E0F9CF83E0809302
:1035900085020E94B91A08950E94BC1A089581E01C
:1035A000809385020E94B91A08950E94CF1A089547
:1035B000089508950E94D91A089508950E94D81A6E
:1035C0000895CF930E94EE030E9459130E94DD1AC2
:1035D000C0E08C2F0E944013811105C0CF5FCE3018
:1035E000C1F7CF91089581E0FCCF85B7806885BF92
:1035F00085B7806885BF08951F921FB61F9211245A
:103600008F939F93AF93BF9380918602811113C0D4
:103610008091CE029091CF02A091D002B091D102C0
:103620004196A11DB11D8093CE029093CF02A0932D
:10363000D002B093D102BF91AF919F918F911F9013
:103640001FBE1F9018958091D602843031F10E94E0
:10365000EF051092860288E190E020E40FB6F8941E
:10366000A895809360000FBE2093600083B7817F90
:10367000846083BF83B7816083BF7894889583B764
:103680008E7F83BF0FB6F894A89580916000886103
:1036900080936000109260000FBE08950E94DB09C5
:1036A0000E94F405089582E084BD93E095BD9AEFF1
:1036B00097BD80936E0008952FB7F8948091CE0245
:1036C0009091CF02A091D002B091D1022FBF089566
:1036D0002FB7F8946091CE027091CF028091D00202
:1036E0009091D1022FBF08959C014FB7F89480911B
:1036F000CE029091CF02A091D002B091D1024FBFE3
:10370000821B930B089578941F921FB61F92112469
:103710008F939F93AF93BF938091CE029091CF02EE
:10372000A091D002B091D1020196A11DB11D80934C
:10373000CE029093CF02A093D002B093D102BF915A
:10374000AF919F918F911F901FBE1F901895F89475
:1037500081E08093E00080E28093D800E9ECF0E023
:1037600010828FE19EE40197F1F700C000001DBABE
:10377000109268001CBC10BE1FBA10927A00109202
:103780006E0010926F001092710010927200108201
:10379000ECEBF0E0108214B817B81AB81DB810BAE4
:1037A000108215B818B81BB81EB811BA0C94003F97
:1037B000089588E19AE00FB6F894A8958093600088
:1037C0000FBE90936000FFCF8091AA0208950895E4
:1037D0009C0182E08093E9009FEF8091E800915086
:1037E00085FD06C085ED8A95F1F700009111F5CFB2
:1037F0008091E80085FF0CC050E040E065E070E09B
:10380000C9010E94331E8091E8008E778093E80002
:103810000895CF93DF93EC0180911D018823B1F1CE
:103820008091B00287FF32C060E283E08093E900BC
:103830008FEF9091E800815095FD06C095ED9A9527
:10384000F1F700008111F5CF8091E80085FF1BC0E2
:1038500080911D0170E050E040E0811104C050E013
:1038600040E068E070E0CE010E94331E8091E800E5
:103870008E778093E80080E2FE01AAE8B2E0019032
:103880000D928A95E1F7DF91CF91089568E081E08C
:10389000CDCF8093870270938902609388028091D4
:1038A000D602843001F583E08093E9008FEF909198
:1038B000E800815095FD06C095ED9A95F1F700005E
:1038C0008111F5CF8091E80085FF0DC050E040E008
:1038D00063E070E087E892E00E94331E8091E80088
:1038E0008E778093E8000895BC0184E00E94491C13
:1038F0000895BC0183E00E94491C08958091D5027F
:10390000811109C00E94C31F0E9420208091E20003
:1039100084608093E20008951092D50208950E9479
:10392000CF1A08956091D20281E0611101C080E058
:103930000E94C61A08959091D60281E0943009F051
:1039400080E06091D2020E94CC1A089542E061ECBE
:1039500081E00E943F1F42E061EC82E00E943F1F35
:1039600042E261EC83E00E943F1F9091D60281E029
:10397000943009F080E06091D2020E94BC1A089550
:103980008091D802833009F463C030F48130E1F1D2
:10399000823009F4A0C008958A3009F48CC08B30BD
:1039A00009F471C0893009F052C08091D702813288
:1039B00009F04DC08091DB029091DC02009719F074
:1039C000029709F044C08091E800877F8093E80067
:1039D0008091E80082FF37C09091F3008091F2005F
:1039E000029731F48091F100813011F0863021F49A
:1039F0008091F1008093AA028091E8008B778093F8
:103A0000E8000E94731F23C08091D702813AF9F425
:103A10008091E800877F8093E8008091DB0290919D
:103A2000DC02892B61F460E28AE892E070E00E9497
:103A3000821E8091E8008B778093E800089560E013
:103A400090E080E0F3CF8091D6028111C1CF08953C
:103A50008091D702813AD9F78091DB029091DC0204
:103A6000892BA9F78091E800877F8093E8008091F7
:103A7000E80080FFFCCF80911D018093F1008091D0
:103A8000E8008E77BCCF8091D702813201F7809118
:103A9000DB029091DC02892BD1F68091E800877FD0
:103AA0008093E8000E94731F8091D90280931D01CA
:103AB0000E94DB0908958091D702813241F68091FE
:103AC000E800877F8093E8000E94731F8091DA02EC
:103AD0008093AB0208958091D702813A09F0B7CF65
:103AE0008091E800877F8093E8008091E80080FF64
:103AF000FCCF8091AB02C1CF84B7877F84BF0FB664
:103B0000F894A8958091600088618093600010927D
:103B100060000FBE80E890E00FB6F89480936100DB
:103B2000909361000FBE0E94D51A08950E94C31F92
:103B30000E942020E2EEF0E080818460808378940F
:103B40000E949F22089581E191E00E9489190895C1
:103B50008091D602853031F48091D602853019F0FB
:103B60000E944E1B08950E94231B8091D40288233B
:103B700099F30E94E11A882379F30E941D1E0E9486
:103B8000DB09EACF08950E94C61D0895292F332727
:103B90002330310521F168F42130310509F443C0A7
:103BA0002230310509F444C090E080E030E020E0AC
:103BB00026C02132310551F122323105A9F7633097
:103BC000710590F7FB01EE0FFF1FED57FE4F2081AF
:103BD000318160587E4FFB01808190E010C09927B1
:103BE0008130910581F0009729F00297E9F6E4EF22
:103BF000F3E002C0E6E3F4E0849190E09F01FA0173
:103C0000318320830895ECE0F4E0F6CF6330710552
:103C100058F6660F771FFB01E757FE4F2081318171
:103C200089E090E0ECCF82E190E02EE834E0E7CF4D
:103C300084E590E02AE334E0E2CF80E189BD82E1CF
:103C400089BD09B400FEFDCF8091D8008F7D80939F
:103C5000D8008091E00082608093E0008091E000D5
:103C600081FDFCCF0895AF92BF92CF92DF92FF9279
:103C70000F931F93CF93DF936C01EB018A010E9496
:103C8000921FF82E811123C00115110539F0F8019A
:103C900080819181C81BD90BC80ED91EB12CA12CD3
:103CA0002097A9F08091E80085FD22C08091E8006E
:103CB0008E778093E80001151105A1F0F80180814D
:103CC0009181A80EB91EB182A08285E0F82E8F2DB9
:103CD000DF91CF911F910F91FF90DF90CF90BF9018
:103CE000AF9008950E94921F8823D1F2F82EEFCF53
:103CF000F60181916F018093F1002197FFEFAF1AD8
:103D0000BF0ACECFFC018091DD029091DE028617C2
:103D10009707A0F06115710529F49091E8009E774E
:103D20009093E80090E06115710551F4911108C07D
:103D30008091E80082FF34C080E00895BC01F2CF9A
:103D40008091D6028823C1F18530C1F18091E800CD
:103D500083FD30C08091E80082FDEACF8091E800C9
:103D600080FFE1CF8091F3002091F200382F6115A0
:103D7000710519F02830310558F091E028303105EF
:103D800009F090E02091E8002E772093E800CBCF57
:103D900081918093F100615071092F5F3F4FE7CF10
:103DA0008091D602882341F0853041F08091E8006F
:103DB00083FFBECF81E0089582E0089583E00895F7
:103DC000FC018091DD029091DE0286179707A0F03A
:103DD0006115710529F48091E8008E778093E800E1
:103DE00090E06115710551F4911108C08091E800CF
:103DF00082FF35C080E00895BC01F2CF8091D602E9
:103E00008823C9F18530C9F18091E80083FD31C074
:103E10008091E80082FDEACF8091E80080FFE1CF49
:103E20008091F3002091F200382F6115710519F08F
:103E30002830310558F091E02830310509F090E044
:103E40008091E8008E778093E800CBCF84918093B7
:103E5000F1003196615071092F5F3F4FE6CF80919D
:103E6000D602882341F0853041F08091E80083FF3D
:103E7000BDCF81E0089582E0089583E00895982FF2
:103E8000973028F08F708093E90081E00895909337
:103E9000E900242F762F50E0981731F07091EC0054
:103EA0002091ED005091F00021FD02C09F5FE8CF0E
:103EB0003091EB003E7F3093EB003091ED003D7F81
:103EC0003093ED003091EB0031603093EB00709354
:103ED000EC002093ED005093F0002091EE0027FDC0
:103EE000E5CF80E008958091D70287FF13C08091CD
:103EF000E80082FF06C08091E8008B778093E8009D
:103F000004C08091D6028111F2CF08958091D6022B
:103F10008823D9F38091E80080FFF8CF8091E800F2
:103F20008E77ECCF2091E4003091E50095E6A90171
:103F30002091EC00822F817020FF06C08091E80064
:103F400080FF06C080E008952091E80022FD1AC09D
:103F50008091D602882389F0853089F08091EB002A
:103F600085FD0FC02091E4003091E5004217530712
:103F7000F9F29150E1F684E0089582E0089583E03B
:103F8000089581E008950E9432200E943A20E0EED8
:103F9000F0E0808181608083E8EDF0E080818F77C0
:103FA000808319BCA7EDB0E08C918E7F8C938081CB
:103FB0008F7E80831092D50208950F931F93CF9325
:103FC000DF930E9432200E943A20C8EDD0E0888121
:103FD0008F77888388818068888388818F7D8883B4
:103FE00019BC1092D6021092D2021092D4021092F2
:103FF000D30200EE10E0F80180818B7F80838881FE
:104000008160888342E060E080E00E943F1FE1EE33
:10401000F0E080818E7F8083E2EEF0E0808181603D
:104020008083808188608083F80180818E7F808397
:10403000888180618883DF91CF911F910F910895CE
:10404000E8EDF0E080818F7E8083E7EDF0E0808115
:104050008160808384E082BF81E08093D5020E94EA
:10406000DD1F0895E8EDF0E080818E7F808310925F
:10407000E20008951092DA001092E10008951F9274
:104080000F920FB60F9211242F933F934F935F938C
:104090006F937F938F939F93AF93BF93EF93FF9310
:1040A0008091E10082FF0BC08091E20082FF07C097
:1040B0008091E1008B7F8093E1000E949E2280919D
:1040C000DA0080FF19C08091D80080FF15C0809170
:1040D000DA008E7F8093DA008091D90080FF96C04D
:1040E00080E189BD82E189BD09B400FEFDCF81E098
:1040F0008093D6020E947E1C8091E10080FF19C04F
:104100008091E20080FF15C08091E2008E7F809355
:10411000E2008091E20080618093E2008091D8000B
:1041200080628093D80019BC85E08093D6020E94FB
:10413000921C8091E10084FF2BC08091E20084FFFB
:1041400027C080E189BD82E189BD89B5982F917032
:1041500080FFFBCF8091D8008F7D8093D800809125
:10416000E1008F7E8093E1008091E2008F7E80935A
:10417000E2008091E20081608093E2008091D202AF
:10418000882309F449C084E08093D6020E949B1CD6
:104190008091E10083FF29C08091E20083FF25C068
:1041A0008091E100877F8093E10082E08093D602D6
:1041B0001092D2028091E1008E7F8093E100809185
:1041C000E2008E7F8093E2008091E2008061809324
:1041D000E20042E060E080E00E943F1F8091F0003A
:1041E00088608093F0000E948F1CFF91EF91BF9137
:1041F000AF919F918F917F916F915F914F913F917F
:104200002F910F900FBE0F901F90189519BC109210
:10421000D6020E948C1C70CF8091E30087FD93E052
:104220009093D602B3CF1F920F920FB60F92112424
:104230002F933F934F935F936F937F938F939F93AE
:10424000AF93BF93CF93DF93EF93FF93D091E900A8
:10425000DF708091EC00C82FC17080FDC0E8109223
:10426000E9008091F000877F8093F00078940E94AD
:1042700057211092E9008091F00088608093F0004F
:10428000CD2BCF70C093E900FF91EF91DF91CF91DB
:10429000BF91AF919F918F917F916F915F914F915E
:1042A0003F912F910F900FBE0F901F901895AAE28B
:1042B000B0E0EDE5F1E20C94F72287ED92E0209179
:1042C000F100FC012193CF01F2E08F3D9F07B9F788
:1042D0000E94C01C8091E80083FF1EC18091D7021C
:1042E0009091D8029A3008F017C1E92FF0E0E35519
:1042F000FB4D0C94E222803899F0823809F00CC111
:104300008091DB028F70873008F006C18093E9004E
:104310008091EB0085FB882780F91092E90006C0A8
:104320008091D3029091D402911182609091E80023
:10433000977F9093E8008093F1001092F1008091B4
:10434000E8008E77E5C0882309F4D3C0823009F0F5
:10435000E3C08091D9028111D6C08091DB028F70B9
:104360002FEF280F263008F0D7C08093E900209166
:10437000EB0020FFC8C0933031F48091EB008062E5
:104380008093EB00C0C09091EB0090619093EB00A4
:1043900021E030E001C0220F8A95EAF72093EA007D
:1043A0001092EA008091EB008860EACF8111B4C0DE
:1043B0001091D9021F778091E3008078812B809340
:1043C000E3008091E800877F8093E8000E94731FDC
:1043D0008091E80080FFFCCF8091E30080688093AB
:1043E000E30082E0111183E08093D60295C08058EB
:1043F000823008F091C08091D9029091DA028C3D10
:1044000023E09207A1F583E08A838AE289834FB78C
:10441000F894DE01139620E03EE051E2E32FF0E055
:1044200050935700E49120FF03C0E295EF703F5F87
:10443000EF708E2F90E0EA30C0F0C7968D939D9379
:104440002F5F243159F74FBF8091E800877F809319
:10445000E8006AE270E0CE0101960E94821E80911F
:10446000E8008B778093E80057C0C096E7CF609153
:10447000DB027091DC02AE014F5F5F4F0E94C31DF3
:10448000BC01892B09F448C09091E800977F909374
:10449000E80089819A810E94E01EE1CF8038E1F531
:1044A0008091E800877F8093E8008091D20280931A
:1044B000F10045CF811130C09091D902923060F562
:1044C0008091E800877F8093E8009093D2020E9459
:1044D000731F8091D202882311F084E005C080917F
:1044E000E30087FDFACF81E08093D6020E94A61CEC
:1044F00013C08091D902813079F481E0933009F0C2
:1045000080E08093D4021092E9008091E800877FD8
:104510008093E8000E94731F8091E80083FF0AC027
:104520008091E800877F8093E8008091EB008062B3
:104530008093EB00AA96E3E00C9413230895CF93A5
:104540008091D6028823A1F0C091E900CF709091AC
:10455000EC00892F817090FD80E8C82B1092E90053
:104560008091E80083FD0E945721CF70C093E9003D
:10457000CF910895AA1BBB1B51E107C0AA1FBB1F07
:10458000A617B70710F0A61BB70B881F991F5A95DF
:10459000A9F780959095BC01CD01089597FB072E52
:1045A00016F4009407D077FD09D00E94BA2207FCC8
:1045B00005D03EF4909581959F4F08957095619533
:1045C0007F4F0895EE0FFF1F0590F491E02D0994A1
:1045D0002F923F924F925F926F927F928F929F9213
:1045E000AF92BF92CF92DF92EF92FF920F931F9301
:1045F000CF93DF93CDB7DEB7CA1BDB0B0FB6F894B2
:10460000DEBF0FBECDBF09942A88398848885F84F1
:104610006E847D848C849B84AA84B984C884DF8062
:10462000EE80FD800C811B81AA81B981CE0FD11D46
:104630000FB6F894DEBF0FBECDBFED0108950F9306
:104640001F93CF93DF938230910510F482E090E0C6
:10465000E091E102F091E20230E020E0B0E0A0E081
:10466000309799F42115310509F447C0281B390BFF
:1046700024303105C0F58A819B816115710571F186
:10468000FB0193838283FE0111C04081518102812D
:10469000138148175907F8F04817590799F41097EC
:1046A00061F012960C93129713961C933296CF01D9
:1046B000DF91CF911F910F9108950093E102109324
:1046C000E202F4CF2115310519F04217530718F40F
:1046D0009A01BD01EF01DF01F801C2CF9093E20220
:1046E0008093E102D0CFFE01E20FF31F81939193FB
:1046F0002250310939832883DACF2091DF023091AB
:10470000E002232B41F42091020130910301309308
:10471000E0022093DF022091000130910101211578
:10472000310541F42DB73EB7409104015091050188
:10473000241B350B4091DF025091E00242175307D2
:1047400008F0B5CF241B350B2817390708F4AFCF75
:10475000BC016E5F7F4F2617370708F4A8CF640FA0
:10476000751F7093E0026093DF02FA0181939193C9
:104770009ECFCF93DF930097E9F0FC01329713822D
:104780001282C091E102D091E202DE0130E020E02D
:104790002097A1F420813181820F931F2091DF02A5
:1047A0003091E0022817390709F067C0F093E00262
:1047B000E093DF02DF91CF910895DA01AE17BF07D2
:1047C00008F040C012964D915C9113979D014115E0
:1047D000510599F7D9011396FC93EE9312974D91D9
:1047E0005D91A40FB51FEA17FB0779F480819181D1
:1047F0000296840F951FD90111969C938E93828106
:10480000938113969C938E931297B0E0A0E08A81D7
:104810009B810097B9F5FE0181919191E80FF91FF5
:104820008091DF029091E0028E179F0719F6109792
:1048300061F51092E2021092E102D093E002C0937F
:10484000DF02B8CFB383A28340815181840F951FCB
:10485000A817B90771F44E5F5F4F8D919C91119726
:10486000480F591F5183408312968D919C919383D9
:1048700082832115310509F0ADCFF093E202E09378
:10488000E10298CFDE01EC01C2CF13961C921E927A
:104890001297D3CFFB01DC0104C08D9101908019E8
:1048A00021F441505040C8F7881B990B0895F9999D
:1048B000FECF92BD81BDF89A992780B50895A6E1F3
:1048C000B0E044E050E00C949124A8E1B0E042E074
:1048D00050E00C949124262FF999FECF92BD81BD12
:1048E000F89A019700B4021639F01FBA20BD0FB62E
:1048F000F894FA9AF99A0FBE08950396272F0E940A
:104900006C240E946B24252F0E946C24242F0C946D
:104910006C240196272F0E946C240C946B24DC01DC
:10492000CB01FC01F999FECF06C0F2BDE1BDF89ABA
:10493000319600B40D9241505040B8F70895F89464
:10494000FFCFAD07AD07FD07FD0762087E08DC0756
:10495000DC0789081509240924097B21A3218C225D
:0E496000A3218C22D621F7218C224E225A222E
:10496E000000E302200020002F023C0714283C0721
:10497E0014E41B091CE81B791C741CE71B01E200E4
:10498E00E900EA00B500B600B700CD008301CC0007
:10499E008A01920194012102230224022502260299
:1049AE0027022A02B300B4006F007000818283E2F6
:1049BE0000E900EA00B500B600B700CD008301CCD7
:1049CE00008A01920194012102230224022502266B
:1049DE000227022A02B300B4006F007000818283A6
:1049EE0040476D54050D05A0044C0465047E04007B
:00000001FF
