:100000000C94E7020C9404030C9404030C94040372
:100010000C9404030C9404030C9404030C94040344
:100020000C9404030C9404030C9433210C940522C7
:100030000C94001C0C9404030C9404030C9404030F
:100040000C9404030C9404030C9404030C94040314
:100050000C9404030C94881C0C9404030C94040367
:100060000C9404030C9404030C9404030C940403F4
:100070000C9404030C9404030C9404030C940403E4
:100080000C9404030C9404030C9404030C940403D4
:100090000C9404030C9404030C9404030C940403C4
:1000A0000C9404030C9404030C9404036003630392
:1000B000660369036C036F037203EC07EC0718080F
:1000C000180879089708AE09AE09A2083B094C093F
:1000D0004C0972229922912399229123E522082327
:1000E00091235F236E2335002B002961D85C0251D8
:1000F00000001E00140004001D003400AA001F00B0
:100100001A0016001B00E2002A6220000800070007
:1001100006002F002C682100150009001900306826
:10012000A900220017000A00050000004C001B086F
:100130000608000019080000A8001A080153000072
:100140002B020000045123001C000B0011000000D2
:100150000351240018000D0010002B084A00250050
:100160000C000E00360002512C41260012000F0038
:100170003700AC0028722700130033003800AE00AF
:100180004D00010001002A43D95CAB0000000100D2
:10019000010001000100010000001E020100010039
:1001A0000100010001001F023102310001000100C5
:1001B000010020022F0026022F020100010021026F
:1001C0003000270230020100010022023502350012
:1001D000010000000100010001000000010000001A
:1001E00001000100010000000100000001002302E5
:1001F000010001000100000001002402340234006B
:1002000001000100010025022D022D00360201002F
:10021000010026022E022E003702010001002702F3
:100220000100330238020100010001000100010059
:1002300001000100000000000000000000000000BC
:10024000000000000000000000000000FA000000B4
:100250000000EF0000000000F2000000ED00EE00E2
:1002600000000000F10000000000F0000000FD00B0
:10027000F90000000000000000000000F300000092
:10028000000000000000000000000000000000006E
:10029000000000000000000000005000000000000E
:1002A000000000004A0051004D0000000000000066
:1002B0004B0052004E0000002800000000004F00DC
:1002C0000000000029000000000000000000000005
:1002D000000000000000000000000000000000001E
:1002E000000000000000000000001E0700000000E9
:1002F0000000000000001F071A0716071B07000078
:100300000407200708070707060700000A07210758
:100310001507090719070000000022070000000068
:1003200000000000000000000000000000000000CD
:100330000000000000000000000000000000230793
:100340001C0750000000000000002407180751009F
:1003500000000000000025070C075200000000000C
:100360000000000000004F0000000000000000003E
:10037000000000000000000000000000000000007D
:10038000000000000000000000000000000000006D
:1003900000003A00000000000000000000003B00E8
:1003A000000000000000000000003C000000000011
:1003B0000000000000003D00000000000000000000
:1003C00000003E00000000000000000000000000EF
:1003D0000000000000000000005C000000000000C1
:1003E0000000000000003F000000000000000000CE
:1003F000000040000000000000000000000041007C
:1004000000000000000000000000420000000000AA
:100410000000000000004300000000000000000099
:1004200000000000000000000000000000001603B3
:100430004500720067006F0044006F0078002000E4
:1004400045005A00000028035A00530041002000D4
:1004500054006500630068006E006F006C006F0060
:100460006700790020004C0061006200730000000A
:100470000403090409025400030100A0FA0904005E
:1004800000010301010009211101000122400007C0
:1004900005810308000109040100010301020009AC
:1004A000211101000122470007058203080001090C
:1004B0000402000103000000092111010001226D66
:1004C000000705830320000112010002000000085C
:1004D0009732744901000102000105010980A10160
:1004E000850319012AB700150126B700950175107B
:1004F0008100C0050C0901A101850419012AA0028F
:10050000150126A002950175108100C0050109069C
:10051000A1018506050719E029E7150025019508C1
:10052000750181020507190029EF1500250195F0D5
:1005300075018102050819012905950575019102CA
:10054000950175039101C005010902A1010901A1ED
:100550000005091901290815002501950875018173
:10056000020501093009311581257F950275088141
:100570000609381581257F950175088106050C0A45
:1005800038021581257F950175088106C0C00501D7
:100590000906A101050719E029E7150025019508BD
:1005A000750181029501750881010507190029FF70
:1005B000150026FF00950675088100050819012918
:1005C00005950575019102950175039101C01124EE
:1005D0001FBECFEFDAE0DEBFCDBF11E0A0E0B1E09B
:1005E000E6EDFAE402C005900D92A239B107D9F701
:1005F00022E0A2E9B1E001C01D92A53EB207E1F7F9
:100600000E94F0140C9469250C9400008098889A3C
:100610008198899A84988C9A85988D9A86988E9AD2
:1006200087988F9A08952098289821982998229839
:100630002A9823982B9852985A9853985B983E98EA
:1006400046980895CF93E82F873080F58091060172
:1006500090910701892B09F047C0CE2F64E670E026
:1006600080E40E94C9199093070180930601892BA9
:10067000D1F464E670E082E10E944A1A9093070187
:1006800080930601892B79F481E090E001C0880F06
:10069000CA95EAF764E670E080950E944A1A909342
:1006A000070180930601CF910C949F1A90E0FC0102
:1006B0003797E730F105C0F4EA5AFF4F0C94ED2369
:1006C000209A289811C0219A29980EC0229A2A9817
:1006D0000BC0239A2B9808C0529A5A9805C0539A77
:1006E0005B9802C03E9A4698CF910895CF93873089
:1006F00040F58091060190910701892B59F564E638
:1007000070E081E40E94C91990930701809306016B
:10071000892B11F0C0E011C084E690E00E947A1AA3
:1007200097FF05C09093070180930601F3CFC82F70
:10073000C09510920701109206010E949F1A8C2FFB
:100740000AC09FB18FB1807F869586959370892B63
:10075000809501C080E0CF9108950E94AD0490E0A3
:1007600090930701809306010E9413030C940603E3
:10077000EF92FF920F931F93CF93DF938091060127
:1007800090910701892B91F0809194018F5F809364
:10079000940181110BC00E94AD0490E09093070179
:1007A00080930601892B11F40E941F0404EB12E0D0
:1007B000C0E0F12C87E0E82EEC0E8C2F0E94220383
:1007C0008E2D0E9422038C2F0E9476038F73F801D6
:1007D0009081891719F08083D1E001C0D0E08E2D7F
:1007E0000E9476038F73F8019781891719F0878328
:1007F00081E001C080E0D82BFD2A0E941303CF5F67
:100800000F5F1F4FC730B1F68F2DDF91CF911F9132
:100810000F91FF90EF9008950E94AD0490E09093A7
:100820000701809306010E9413030E940603E2EC75
:10083000F2E0119282E0E03DF807D9F7089556986A
:100840005E9825982D9826982E9827982F988FEFA8
:1008500090E0909389008093880090938B00809320
:100860008A0090938D0080938C00259A2D9A2FEF0B
:1008700080E792E0215080409040E1F700C0000006
:10088000269A2E9A2FEF80E792E0215080409040E8
:10089000E1F700C00000279A2F9A2FEF80E792E03F
:1008A000215080409040E1F700C0000025982D982D
:1008B0002FEF80E792E0215080409040E1F700C0A8
:1008C000000026982E982FEF80E792E0215080407C
:1008D0009040E1F700C0000027982F9856985E9846
:1008E00025982D9826982E9827982F98089589EA6C
:1008F0008093800089E08093810024982C983F9811
:100900008AB18F7C8AB96E98479A8BB180638BB914
:10091000769A0E94A7106093AE027093AF02809304
:10092000B0029093B10267708FEF689FB0011124FD
:10093000759567957595679577277093890060938E
:10094000880070938B0060938A0070938D00609391
:100950008C000E941F040C94251480E290E0909378
:100960000701809306018091950181110EC00E94BC
:10097000C31981E0809395012FEF83ED90E321501F
:1009800080409040E1F700C0000064E670E080E441
:100990000E94C9199093070180930601892B09F0E1
:1009A0004EC064E670E080E00E944A1A909307010E
:1009B00080930601892B09F042C064E670E080E074
:1009C0000E944A1A9093070180930601892BB9F57A
:1009D00064E670E08FE30E944A1A909307018093C7
:1009E0000601892B61F50E949F1A64E670E080E49D
:1009F0000E94C9199093070180930601892BF9F48D
:100A000064E670E08CE00E944A1A9093070180939C
:100A10000601892BA1F464E670E080E00E944A1A86
:100A20009093070180930601892B49F464E670E0F6
:100A30008FE30E944A1A90930701809306010E9457
:100A40009F1A8091060108951092AE021092AF0293
:100A50001092B0021092B10284E080618093AE02E5
:100A60006091AE027091AF028091B0029091B1029C
:100A70000E94AB100C94B7100C94231481E00895DD
:100A800081E008950C94400508950C9444051F934B
:100A9000CF93DF9300D000D01F92CDB7DEB749834C
:100AA0005A836B833091970189819A81311114C0E7
:100AB000662359F0222349F00E94ED0B182F682F6E
:100AC00089819A810E94940B03C00E94C00B182F49
:100AD00069817A81812F04C00E94ED0B69817A813E
:100AE0000F900F900F900F900F90DF91CF911F916B
:100AF0000C940513FC01262F408151816281738182
:100B000084810C94470581E00895CF93DF93EC0135
:100B100060E00E947A05BE01DF91CF910C944505FB
:100B20000C9477040C943C0508950E943E0A0E94A0
:100B300094052FEF84E39CE0215080409040E1F742
:100B400000C000000C94AE1C0F931F93CF93DF9353
:100B50008C0161E00E947A05EC01B8010E94420517
:100B60008823F1F1B801CE010E9471198823C1F1E7
:100B7000B801CE010E948517882391F1B801CE01FA
:100B80000E94CD18882361F1F8018281882309F140
:100B9000CB358DE5D807C1F050F4C115FCE5DF0772
:100BA00081F0CF3DDC45A9F40E941B1119C0CC3562
:100BB000EDE5DE0761F0CD35DD4559F40E946710A3
:100BC00008C00E9495050CC00E94701002C00E94CF
:100BD0007310C801DF91CF911F910F910C943E05C6
:100BE00080E0DF91CF911F910F9108950E94E51B46
:100BF0000C940F060E9412060C94E91B08950C94A5
:100C0000FE0581E008950C9401060895CF93C82F46
:100C10000E94FF058C2F0E940306CF91089580E06B
:100C20000C9406060E94AD1A0C9406060E94AD1A9A
:100C300090919601891721F0809396010C940606F5
:100C40000895CF93DF93CDB7DEB72B970FB6F89407
:100C5000DEBF0FBECDBF4F83588769877A878B87EA
:100C600061110E94B30F9E012F5F3F4F86E0F90193
:100C700011928A95E9F785E0FE013796D901019036
:100C80000D928A95E1F789819A814C815D81452B8E
:100C900031F09F3F31F491E08F3F19F403C091E0B0
:100CA00001C090E090FF09C049815A816B817C812D
:100CB0008D819E810E94D40E05C0C9010E948305CA
:100CC0008111F2CF2B960FB6F894DEBF0FBECDBFC9
:100CD000DF91CF910895FC01808191810E942F0CBA
:100CE0000895CF93882309F4A4C0C82F8238C1F493
:100CF0000E94AD1A81FD9DC069E380910A01909127
:100D00000B010E94A01B0E94D50F2FEF81EE94E0F3
:100D1000215080409040E1F700C0000069E319C015
:100D2000833801F50E94AD1A80FD83C063E5809190
:100D30000A0190910B010E94A01B0E94D50F2FEF7A
:100D400081EE94E0215080409040E1F700C0000027
:100D500063E580910A0190910B010E94AB1BCF913A
:100D60000C94D50F8438C1F40E94AD1A82FD61C085
:100D700067E480910A0190910B010E94A01B0E94E0
:100D8000D50F2FEF81EE94E0215080409040E1F7A5
:100D900000C0000067E4DDCF8CEF8C0F813AD0F407
:100DA0006C2F80910A0190910B010E94201B8823D7
:100DB00049F06C2F80910A0190910B010E94AB1BAE
:100DC0000E94D50F6C2F80910A0190910B010E9417
:100DD000A01BC5CF80E28C0F883048F4C77081E03B
:100DE00001C0880FCA95EAF70E94960FB8CFEBE5CD
:100DF000EC0FE33040F4F0E0E25BFE4F808190E0E6
:100E0000CF910C94DE1AE8E5EC0FE73150F4F0E0F6
:100E1000EE0FFF1FE05EFE4F80819181CF910C9419
:100E2000F41ACD3E30F08C2F0E947515CF910C94A2
:100E30004716CF910895882309F464C0823879F465
:100E40000E94AD1A81FF5EC069E380910A01909112
:100E50000B010E94A01B0E94D50F69E310C08338CC
:100E6000B1F40E94AD1A80FF4DC063E580910A0184
:100E700090910B010E94A01B0E94D50F63E5809109
:100E80000A0190910B010E94AB1B0C94D50F843882
:100E900079F40E94AD1A82FF35C067E480910A019F
:100EA00090910B010E94A01B0E94D50F67E4E7CF31
:100EB0009CEF980F913A10F4682FE1CF90E2980FD1
:100EC000983050F4877091E001C0990F8A95EAF745
:100ED000892F0E949C0FD9CF9BE5980F933020F467
:100EE00080E090E00C94DE1A98E5980F973120F49A
:100EF00080E090E00C94F41A8D3E20F00E94D01512
:100F00000C94471608951F93CF93DF93182FEB018E
:100F10000E947106209741F08FE99FE00197F1F759
:100F200000C000002197F6CF812FDF91CF911F9154
:100F30000C941B07893319F060E070E002C060E593
:100F400070E00C948307882321F00E94960F0C9484
:100F5000D50F0895882321F00E949C0F0C94D50F83
:100F60000895CF92DF92EF92FF920F931F93CF934A
:100F7000DF937C01D62FC72FFC01128105810295DA
:100F80000F700E948C0F8823B9F01123A9F08C2FC9
:100F9000807F803421F080E28D0F883068F080916E
:100FA000B30282FD09C082E00E9435100E948C0FBE
:100FB00091E0D82ED92601C0D12CCC2EC2948FE03E
:100FC000C8228C2D90E08C30910508F0C7C1FC013F
:100FD000E35AFF4F0C94ED238C2F807FCF70882332
:100FE00011F0C295C07F112399F0CC2309F4A2C15E
:100FF00080E28D0F883010F0D11104C08C2F0E9438
:10100000960F03C08C2F0E94A60F0E94D50F92C18D
:101010008D2F0E941B07CC2309F4A0C180E28D0F05
:10102000883038F1DD2329F18C2F0E94AC0F24C0C9
:101030008C2F807FCF70803211F0C295C07FDD236E
:1010400019F0D130A1F13FC08091B30282FF17C0E7
:10105000112349F0CC2329F08C2F0E94960F0E9477
:10106000D50F80E068C180E00E941B07CC2309F403
:1010700075C18C2F0E949C0F0E94D50F6FC1112348
:1010800071F0002341F0013031F40E94B60F8C2B37
:101090000E94BE0F63C10E94B60F8C2B0EC00023AE
:1010A00019F0013009F45AC10E94CB0F1EC0112360
:1010B00039F0023008F052C18C2F0E94A3074EC1B4
:1010C00001114CC112C0112319F00023A9F332C140
:1010D000002359F0D93309F03EC1FFEF07EE13E0CA
:1010E000F15000401040E1F734C18C2F0E94AA0754
:1010F00035C18C2F86958695837019F0813061F00B
:101100002DC1112321F08D2F9C2F937002C080E000
:1011100090E00E94DE1A2AC1112321F08D2F9C2F0E
:10112000937002C080E090E00E94F41A1FC18D2FDE
:10113000112319F00E94751502C00E94D0150E945B
:10114000471614C18C2F837009F047C011110AC1D2
:101150002D2F229526952770220F220F6D2F6F704D
:10116000862F90E0A0E0B0E0022E04C0880F991F07
:10117000AA1FBB1F0A94D2F7D4FF10C04FE050E063
:1011800060E070E004C0440F551F661F771F2A956A
:10119000D2F7409550956095709503C040E050E0BF
:1011A000BA01C695C695C3708A019B01082B192BFD
:1011B0002A2B3B2BC901B801C23049F058F4C13089
:1011C00019F00E94AA0ACEC00E94980ACBC00E94C1
:1011D000BC0AC8C00E94960AC5C0112319F08C2F02
:1011E000817001C08695882309F4BCC02D2F2295FB
:1011F00026952770220F220F6D2F6F70862F90E09B
:10120000A0E0B0E0022E04C0880F991FAA1FBB1FE8
:101210000A94D2F7D4FF10C04FE050E060E070E0D5
:1012200004C0440F551F661F771F2A95D2F74095BB
:1012300050956095709503C040E050E0BA01C695A6
:10124000C695C3708A019B01082B192B2A2B3B2BB7
:10125000C901B801C23049F058F4C13019F00E94F8
:101260006F0B80C00E945D0B7DC00E94810B7AC015
:101270000E94D00A77C0CF70112339F08C2F0E94C2
:10128000F60A8D2F0E94A3076DC08D2F0E94AA071A
:101290008C2F0E94170B66C0D23F19F128F4D03F63
:1012A00041F0D13FB9F042C0D33F11F1D43F71F0CA
:1012B0003DC0112339F0011151C08C2F8F710E9454
:1012C0003C0B4CC0023008F049C0F7CF8091B3020C
:1012D00082FF18C0112339F08C2F8F710E94F60AFB
:1012E0003DC01123C9F38C2F8F710E94170B36C09C
:1012F000112329F08C2F8F710E94E10A2FC00E94C8
:10130000DC0A2CC0112349F0CF718C2F0E94F60A01
:1013100063E08C2F0E941A1021C081E00E943510DA
:101320000230E0F082E00E94351018C0112331F045
:10133000002391F28D2F0E94710610C0002399F2B4
:10134000D93349F41FEF27EE33E0115020403040ED
:10135000E1F700C000008D2F0E941B0788EF8C0D65
:10136000843020F40E94AD1A0E940606DD20C9F0E8
:101370000E94880F80FD15C0F70112820E94820F23
:101380000E94F60AC7010E94F2090E94820FDF91B3
:10139000CF911F910F91FF90EF90DF90CF900C9421
:1013A000170BDF91CF911F910F91FF90EF90DF907E
:1013B000CF9008950F931F93CF93DF93EC01688133
:1013C00079818A810E943A0C8C010E94930B0E94C1
:1013D000840AB801CE010E94B107DF91CF911F911D
:1013E0000F910895CF93DF93EC01988189812B8130
:1013F0003C81232B31F08F3F31F481E09F3F19F482
:1014000003C081E001C080E080FD1DC0CE010E94CC
:10141000A405811110C00E948C0F8823A1F08A813D
:10142000882389F08091B30282FD0DC082E0DF91B4
:10143000CF910C943510CE010E94DA09CE01DF91D4
:10144000CF910C948505DF91CF91089580E090E0D5
:101450000E94DE1A80E090E00E94F41A0E94B30F0E
:101460000E94D50F0E9477170C94471680910A01AD
:1014700090910B010E94B61B0C94260A0E94A30FA8
:101480000C94360A92959F70963079F010F4925031
:1014900001C09A50923068F4803F69F018F4883E99
:1014A00040F409C0843F29F406C0883E20F0813F03
:1014B00011F080E0089581E00895FC018081918120
:1014C0000E942F0C0E94420A0895CF93DF9300D010
:1014D00000D01F92CDB7DEB70F900F900F900F90F6
:1014E0000F90DF91CF910895CF93DF9300D000D07C
:1014F00000D0CDB7DEB726960FB6F894DEBF0FBE8C
:10150000CDBFDF91CF910895089508950C94850A79
:101510000C94860A0E94880A6093D3017093D401C8
:101520008093D5019093D6010C94260A0C948A0AD4
:101530000F931F930091D3011091D4012091D501F5
:101540003091D601602B712B822B932B1F910F9121
:101550000C948A0A0F931F930091D3011091D40128
:101560002091D5013091D6016023712382239323EA
:101570001F910F910C948A0A0F931F930091D3012E
:101580001091D4012091D5013091D60160277127A7
:10159000822793271F910F910C948A0A0C94850A35
:1015A0000E94CE0A6093CF017093D0018093D10145
:1015B0009093D2010C94260A60E070E0CB010C9469
:1015C000D00A0F931F9341E050E060E070E08A0181
:1015D0009B0104C0000F111F221F331F8A95D2F7F1
:1015E000C901B8011F910F910C94D00A0F931F935A
:1015F00041E050E060E070E004C0440F551F661FFA
:10160000771F8A95D2F78091CF019091D001A09158
:10161000D101B091D2018A019B01082B192B2A2BF1
:101620003B2BC901B8011F910F910C94D00A0F9365
:101630001F9341E050E060E070E004C0440F551F8C
:10164000661F771F8A95D2F74095509560957095E3
:101650008091CF019091D001A091D101B091D201A0
:101660008A019B01082319232A233B23C901B801BE
:101670001F910F910C94D00A0F931F9341E050E0FB
:1016800060E070E004C0440F551F661F771F8A9505
:10169000D2F78091CF019091D001A091D101B0916A
:1016A000D2018A019B01082719272A273B27C90154
:1016B000B8011F910F910C94D00A0F931F930091C2
:1016C000CF011091D0012091D1013091D201602B36
:1016D000712B822B932B1F910F910C94D00A0F9397
:1016E0001F930091CF011091D0012091D101309131
:1016F000D20160237123822393231F910F910C94B5
:10170000D00A0F931F930091CF011091D001209127
:10171000D1013091D20160277127822793271F9131
:101720000F910C94D00A0895292F220F920F990F30
:10173000890FE82FE695E695E695877051E001C0A0
:10174000550F8A95EAF785E0E89FF0011124E856E5
:10175000FE4F20E030E070E04081CB01022E02C05D
:10176000969587950A94E2F7817081958427852361
:10177000842781932F5F3F4F2530310569F7089506
:10178000292F220F920F990F890F682F6695669562
:101790006695982F977085E0689FB001112440E00E
:1017A00050E080E0FB01E40FF51FE856FE4F20817A
:1017B00030E0092E02C0369527950A94E2F7217091
:1017C0003327042E01C0220F0A94EAF7822B4F5FC1
:1017D0005F4F4530510531F70895BF92CF92DF92A8
:1017E000EF92FF920F931F93CF93DF938C01C090E2
:1017F000CF01D090D001E090D101F090D201809142
:10180000D3019091D401A091D501B091D601C82AFD
:10181000D92AEA2AFB2ACFE1D0E0D701C6010C2E53
:1018200004C0B695A795979587950A94D2F780FD41
:1018300004C0219790F7B12C07C0BC2EB8018C2FA3
:101840000E9418130197A9F38B2DDF91CF911F915F
:101850000F91FF90EF90DF90CF90BF900895CF93BE
:10186000DF93EC010E94ED0BBE010E941813DF9183
:10187000CF9108951F93CF93DF93EB019091970140
:10188000992321F0CB010E942F0C13C0882349F02B
:10189000CB010E94ED0B182F682FCE010E94940BF4
:1018A00004C0CB010E94C00B182FBE01812F0E94E3
:1018B0001813DF91CF911F9108951F93CF93DF935A
:1018C000C091D70116E08091D801C81799F0D0E0F7
:1018D0001C9FF0011D9FF00D1124E752FE4F408127
:1018E000518162817381848195810E94740A21965D
:1018F000C770E9CFDF91CF911F9108954091090200
:1019000050910A0260910B0270910C0280910D02BD
:1019100090910E020C94740AEF92FF920F931F9312
:10192000CF93DF9380910E0282958F7009F065C08E
:1019300080910B02882309F460C08091D701F09058
:10194000D8011091090200910A0260910C02709175
:101950000D0291E01F3F09F090E0C0910801D09185
:101960000901292F96E0E92E8F1509F446C061156B
:10197000710521F00F3F21F030E003C031E001C0DC
:10198000322F90E030FD36C0E89EF001E99EF00D68
:101990001124DF01A752BE4F11963C9111973013CD
:1019A00029C03C91311326C012963C9112973111F7
:1019B00021C013964D915C911497461B570B4C1701
:1019C0005D07C0F480910E028F70806180930E02DB
:1019D000E252FE4F80818F708061808389E092E0C7
:1019E0000E94F209DF91CF911F910F91FF90EF902C
:1019F0000C945D0C01968770B7CFDF91CF911F914A
:101A00000F91FF90EF9008959F92AF92BF92CF9267
:101A1000DF92EF92FF920F931F93CF93DF93CDB797
:101A2000DEB761970FB6F894DEBF0FBECDBF8C0155
:101A300085E0F801DE011D9601900D928A95E1F78F
:101A4000D8011296EC9090910902E0910A0220913F
:101A50000C0230910D022115310531F0EF3F31F4C8
:101A600081E09F3F19F403C081E001C080E0B82FFE
:101A7000B1709B2E80FD47C1D8014C9111965C91AD
:101A800011971396AD90BC90149789E0C82E82E010
:101A9000D82EF0900B02B501621B730B2091080148
:101AA00030910901FF2009F4D9C080910E0262171C
:101AB000730708F095C0282F207F09F052C05E13ED
:101AC00013C0491311C0FE2CE1100EC08F7080614D
:101AD00080930E020E947E0CC6010E94F209809142
:101AE0000E02F80185834DC1AB2831F05F3F31F420
:101AF00081E04F3F19F403C081E001C080E080FD28
:101B000003C081E08E2502C080E090E0F82FF170E4
:101B1000FF2E80FF1CC08091D7012091D80136E0B4
:101B2000821709F40BC190E0389FF001399FF00D46
:101B30001124E752FE4F6181561306C0608146139F
:101B400003C06281E61203C001968770E9CFFE2CC4
:101B5000EE2009F416C180910E02816080930E027E
:101B600054C05E1306C0491304C0E11002C0F8015E
:101B700099C0C8010E945D0A882361F1EE2051F1ED
:101B800020910E02822F82958F7090E0029774F060
:101B90008091090290910A0298878F831986BB86EB
:101BA000AA862C87CE0107960E94F20986E0F801EA
:101BB000A9E0B2E001900D928A95E1F70E948C0CA9
:101BC0000E947E0C0AC05E1711F1C8010E945D0AD6
:101BD00081112CC0C8010E94F209FF24F394D1C0E6
:101BE000282F207F81F77A2DB98AA88A6E2D8989BE
:101BF0000E94650A89E092E00E94F20986E0D6011F
:101C00001D928A95E9F70E947E0CF12CBAC0491307
:101C1000DCCFE110DACFF8018583C8010E94F20918
:101C200086E0D6011D928A95E9F7ABC0EE2091F2CD
:101C300020910E02822F82958F7090E002970CF413
:101C4000B5CF8091090290910A029A8389831B8201
:101C5000BD82AC822E83CE010196A6CF6217730798
:101C600008F044C0FE2CEE2009F4B4CF5E1330C05F
:101C700049132EC020910E0220FD21C0822F829593
:101C80008F70482F50E041155105C9F0F8012583A8
:101C90004F30510541F08F5F982F9295907F822FA2
:101CA0008F70892B8583C8010E94F20986E0F801B4
:101CB000A9E0B2E001900D928A95E1F73CC086E080
:101CC000F801A9E0B2E001900D928A95E1F759C0C0
:101CD000C8010E945D0A811169CF80910E02816066
:101CE00080930E02C8010E94F2094BC07A2DB98A76
:101CF000A88A6E2D89890E94650A86E0D6011D9208
:101D00008A95E9F718C0EE2009F464CFC8010E9453
:101D10005D0AF82E882309F45DCF86E0F801A9E07A
:101D2000B2E001900D928A95E1F789E092E00E947D
:101D30006B060E948C0C0E947E0C23C04D875E8730
:101D40008D859E850E942F0C292F22952F70223081
:101D500028F49F7039F0811105C00BC0243028F49D
:101D60009F7049F4805E883020F0C8010E94F2091B
:101D70009F2CF92C06C0D80115969C91907F91F765
:101D8000F8CF8F2D61960FB6F894DEBF0FBECDBF92
:101D9000DF91CF911F910F91FF90EF90DF90CF9047
:101DA000BF90AF909F9008951F93CF93DF93CDB7CF
:101DB000DEB72C970FB6F894DEBF0FBECDBF4F83B2
:101DC000588769877A878B879C87CE0107960E9400
:101DD000040D8823D1F09F8188852A853B85232B9C
:101DE00031F08F3F31F481E09F3F19F403C081E06F
:101DF00001C080E080FD47C04F81588569857A85A4
:101E00008B859C850E94740A3EC086E0FE01379651
:101E1000DE01119601900D928A95E1F7FF81E88528
:101E20006A857B856115710531F0EF3F31F481E002
:101E3000FF3F19F403C081E001C080E080FD23C0B2
:101E40002091D80130E0C90101968770992740910F
:101E5000D70150E084179507F1F1F983EA837D8378
:101E60006C8396E0929FD001939FB00D1124A752EE
:101E7000BE4FFE01319601900D929A95E1F7809345
:101E8000D8010E945D0C16E08091D7019091D80195
:101E9000891771F1189FC001112487529E4F0E942B
:101EA000040D882329F1E091D7011E9FF001112430
:101EB000E752FE4F40815181628173818481958117
:101EC0000E94740A8091D70190E00196877099274B
:101ED0008093D701D9CF0E943E0A1092D801109268
:101EE000D701E9E0F2E086E0DF011D928A95E9F78B
:101EF0002C960FB6F894DEBF0FBECDBFDF91CF9109
:101F00001F91089580912F02859585958595089557
:101F100080912F028770089590912F02977081E031
:101F200009F480E008958091520208959091520240
:101F3000892B8093520208958095909152028923B3
:101F40008093520208951092520208959091510286
:101F5000892B809351020895809590915102892395
:101F60008093510208951092510208958091300299
:101F7000089508950C94B90F0C94BA0F9091B30280
:101F800092FD08C090913002981721F080933002A2
:101F90000C94BC0F089580913002882329F0109290
:101FA000300280E00C94BC0F0895CF93DF93E09152
:101FB0000A01F0910B01809152028083E0910A01A5
:101FC000F0910B01908180915102892B8083809147
:101FD0003002882381F0E0910A01F0910B01908199
:101FE000892B808380910A0190910B010E940A1B2A
:101FF00081110E94CB0FC0910A01D0910B0140E2E8
:1020000050E06FE072E0CE010E941425892B69F048
:1020100080E2FE01AFE0B2E001900D928A95E1F717
:10202000CE01DF91CF910C94B91ADF91CF91089531
:102030000C94B90F9091B30292FD10C098E0899F63
:1020400090011124262B20932F020E94F60A8091E2
:102050002F028595859585950C9418100C94F60A99
:1020600010922F0280E00C94181020912F0280957E
:10207000822380932F02982F977099F430E0482F95
:10208000082E000C550B2417350759F09091B30218
:1020900092FD07C08595859585950E94170B0C9438
:1020A000301008959091B30292FB222720F928174F
:1020B00069F080FB92F99093B3028091B202909103
:1020C000B3020E949A1082E00C943510089580911A
:1020D000B30282FB882780F991E089270C94521083
:1020E00081E00C94521080E00C94521080E090E05B
:1020F0000E942F2521E0893E9E4F09F020E0822F8B
:10210000089582E090E00C94212583E090E00C9407
:102110002125CF9384E090E00E942125C82F82E200
:1021200090E00E9421252C2F30E0A901582BCA01F4
:10213000CF910895CF93C92F682F84E090E00E943B
:1021400035256C2F82E290E0CF910C9435258FE0FD
:1021500090E00C942925AB01BC018FE090E00C9439
:102160004725AB01BC0183E190E00C94472560E07A
:1021700070E0CB010C94B11069EE7EEF80E090E04E
:102180000E94532560E082E090E00E94352560E0E7
:1021900083E090E00E9435251092D3011092D40183
:1021A0001092D5011092D60160E084E090E00E9488
:1021B000352560E082E290E00E94352560E085E010
:1021C00090E00E94352560E086E090E00E94352591
:1021D0006FEF87E090E00E94352540E050E0BA01C3
:1021E00088E090E00E94472560E08DE090E00E944A
:1021F000352540E050E0BA0188E190E00E94472593
:1022000060E087E190E00E94352540E050E0BA01AF
:102210008CE190E00E94472560E070E080E290E071
:102220000E94532540E050E0BA0188E190E00E940E
:1022300047250C9424050C94BC10682F8EE090E088
:102240000C9435250E946D1C6093650270936602A4
:1022500080936702909368026093610270936202B8
:102260008093630290936402089585B7806885BF68
:1022700085B7806885BF089581E008950C943C116E
:1022800008950C9440110C9440110C9443110C943B
:1022900040110C9447110C9440110E94351184EFA9
:1022A00093E10E94A31A0E944B110C9449110E94C1
:1022B00041110C9440110E94F7130C9405060E94E2
:1022C000581C0E9427140E945B110C9445118F9298
:1022D0009F92AF92BF92CF92DF92EF92FF920F93B5
:1022E0001F93CF93DF93CDB7DEB72A970FB6F8943D
:1022F000DEBF0FBECDBF0E943814982E81110E9400
:10230000221183E5A82E82E0B82E00E010E0802E96
:10231000802F0E941B14D82EF501C1905F01C826A2
:10232000B1F40F5F1F4F0E30110589F78FEF8983CE
:102330008A831B820E94611C8160782F9D838C831D
:1023400049815A816B818D810E9421062FC0809125
:10235000690281FD0E942114E12CFF24F3948C2D4D
:102360008F21F1F00E943E11882399F0EE828F8236
:10237000DF2081E009F480E088870E94611C816091
:10238000782F9A8789874E815F8168858A850E9428
:102390002106F801ED5AFD4F8081F826F08206C033
:1023A000E394FF0CF6E0EF12DACFBBCF81E091109F
:1023B00001C080E02A960FB6F894DEBF0FBECDBFF5
:1023C000DF91CF911F910F91FF90EF90DF90CF9011
:1023D000BF90AF909F908F9008950E9467110E94C8
:1023E00065160C941606CF93DF930E941D13EC0123
:1023F000811521E5920708F045C0811530E5930766
:1024000008F094C0883E910528F5803E910508F0BB
:10241000F8C0883A910570F4853A910508F07CC0BF
:102420008130910509F475C008F4E8C0049708F0FC
:10243000E8C0E4C08F3B910508F0E0C0C85AD0E086
:10244000CC0FDD1FCF5ADE4F0990D881C02DCE01B1
:102450009464D8C0811540E2940758F4811551E086
:10246000950708F0CEC08D3E910508F4C7C0906571
:10247000C9C0C11580E4D80708F4C0C0DF70CE0120
:10248000906AC0C0811525E59207A8F4811534E54E
:10249000930708F095C0811543E5940708F07BC0C9
:1024A000811552E5950708F061C0D82FCC27CE01E1
:1024B000816F906AA7C0C11589E5D807A0F4C1153E
:1024C00028E5D20708F082C0C11536E5D30708F029
:1024D00095C08C2F0E94B1138F7190E0D82FCC271C
:1024E000CE0190628FC0C1154AE5D40708F474C0CC
:1024F000CE0190568115904208F080C08D2F8F71CB
:102500000E94B113DD27D0628F71AE01582BCA0132
:1025100079C081E090E076C0C55AD0E0C158DE4F66
:102520008881C82FD0E0CE0190646CC074E096958D
:1025300087957A95E1F7282F23703C2F337081E03F
:1025400090E002C0880F991F3A95E2F79C68AC01B1
:10255000522B9A019C2F9F709695969550E2959FCD
:10256000E0011124C9018C2B9D2B4CC0837099274D
:1025700021E030E002C0220F331F8A95E2F79C2F42
:102580009695969580E2989FE0011124C22BD32B5B
:10259000CE019C6837C08370992721E030E002C0EB
:1025A000220F331F8A95E2F79C2F9695969540E26D
:1025B000949FE0011124C22BD32BCE019A6822C034
:1025C000D82FCC27CE01846F906A1CC0DC2FCC277B
:1025D000CE01806F906A16C08C2F8F700E94B1134D
:1025E00094E0D695C7959A95E1F7CF70D0E0DC2FAF
:1025F000CC27D0699E01282BC90104C080E090E05F
:1026000001C0CE01DF91CF91089524E5829FC001E2
:102610001124FC0126E0729FE00DF11D1124E60F4C
:10262000F11DEE0FFF1FEA51FF4F85919491089520
:102630000E9405130E94F31108958238910569F1F3
:10264000B0F48133910509F46DC048F489329105E5
:1026500009F463C08A32910509F469C0089585338D
:10266000910509F455C089339105B9F00895833E69
:10267000910569F138F4803E9105B1F0823E9105F3
:1026800009F10895863E9105A9F1873E9105B9F1BA
:10269000843E910509F064C023C02091B20220FD60
:1026A0004FC021FD4DC008958091B20280FD44C00D
:1026B0008091B30280FF44C08091B20284FD42C089
:1026C00083EE4DC08091B20282FF38C0F5CF809179
:1026D000B20282FD33C08091B30280FD31C0ECCFE5
:1026E0008091B30281FF32C08091B20284FD2AC082
:1026F00087EE35C08091B20283FF26C0F5CF80916E
:10270000B20283FD21C08091B30281FD1FC0ECCFD6
:102710008091B20285FD1CC01DC08091B20285FD72
:1027200019C016C08091B20286FD16C017C08091F4
:10273000B20286FD13C010C089E311C082EE0FC043
:1027400080EE0DC080E00BC086EE09C084EE07C0AD
:1027500089E205C085E303C08AE201C081E390E01D
:1027600008959091B20292FF0DC0282F2871283051
:1027700019F4877F846006C0282F2471243011F457
:102780008B7F886093FF0DC0282F2871283119F4A2
:10279000877E846106C0282F2471243111F48B7E3A
:1027A00088612091B30220FF0DC0382F3871383076
:1027B00019F4877F816006C0382F3171313011F4F0
:1027C0008E7F886021FF0DC0282F2871283119F4D1
:1027D000877E816106C0282F2171213111F48E7E00
:1027E000886194FD877E089580E0089508950E9491
:1027F0007610811102C00E941B110E9481108093EB
:1028000069020E9489109093B3028093B2020E94E1
:10281000F6130E948510682F70E080E090E00E941F
:10282000960A6091CF017091D0018091D101909171
:10283000D2010C94CE0AE82FF0E0EE53FD4F8081D8
:102840000895089508950C9422140C9422140E9463
:10285000AD03E4EBF2E0A2ECB2E011921D9282E053
:10286000E23CF807D1F78EE00E944B140C949005DF
:10287000CF9384EB92E00E94B803C82F282F4EE03C
:1028800062EC72E084EB92E00E945E140E9492057A
:102890008C2FCF910895CF93C82F90E00E94F323FF
:1028A00080936D0290936E02282FFC018E2F821B65
:1028B0008C1710F41192FACFCF910895DF92EF9216
:1028C000FF920F931F93CF93DF93082FF92EE62EDD
:1028D000D72E142FD22FC0916A02CC23C9F10E94A7
:1028E000611C20916B0230916C02AC01421B530BB6
:1028F0009A0190936C0280936B024F3F510509F04F
:1029000020F4452B09F454C002C02FEF30E01092A0
:102910006A0210926F0240916D02E42FF0916E02F4
:1029200090E030E08E2F841B811768F4808188232B
:1029300041F0281718F010829C2F03C0821B80835F
:102940003C2F3196EFCF30936A0290936F0230C0E4
:10295000222331F10E94611C90936C0280936B02E0
:1029600090916D0280916A02AE2DBD2DC02FDF2D9A
:10297000E92FF0916E023EE12E2F291B211768F4FA
:1029800029914C91421731F04081411103C03083AD
:102990002C9381E031961196EFCF80936A020CC0A0
:1029A00080E090916F02992339F08111D9CFD2CF75
:1029B000D111D6CF81E0F5CFDF91CF911F910F914B
:1029C000FF90EF90DF9008950E948E1E0E945F118D
:1029D0000C949A1E0E949E1E0E94ED110C94B81E2B
:1029E0000E94FF1B0E94751E0E944D110E94E4145C
:1029F0000E94EA140E945711FBCF8091770280FF5A
:102A000006C06091110170E0660F771F26C081FF3C
:102A100004C06091110184E005C082FF07C060918D
:102A2000110188E0689FB001112417C090917602CF
:102A30009923D1F060911001961788F72091110128
:102A400088E0289F90011124929FA001939F500D30
:102A5000112470E0CA010E94D9236038710540F446
:102A60006115710519F406C068E070E0862F0895BD
:102A70008FE7089581E008958091770280FF08C074
:102A800060910D0170E0759567957595679521C00A
:102A900081FF06C060910D0170E07595679519C0C2
:102AA00082FF04C060910D0170E010C0909175022A
:102AB000992399F060910C019617A0F780910D0170
:102AC000899FC001112470E00E94D92360387105EC
:102AD00040F46115710519F406C061E070E0862FBD
:102AE00008958FE7089581E008958D3E21F40E94B6
:102AF000FD14819504C08E3E29F40E94FD1480933C
:102B00007A0208958F3E21F40E94FD14819504C03D
:102B1000803F29F40E94FD14809379020895893F33
:102B200019F40E943C1505C08A3F31F40E943C15FF
:102B3000819580937B0208958B3F21F40E943C1580
:102B4000819504C08C3F29F40E943C1580937C023F
:102B500008959FE0980F983078F421E030E0A901C3
:102B600002C0440F551F9A95E2F7CA01909178026E
:102B7000892B8093780208958D3F21F4809177020C
:102B800081600BC08E3F21F480917702826005C086
:102B90008F3F29F4809177028460809377020895B3
:102BA0008D3E39F490917A0297FF35C010927A02E7
:102BB00059C08E3E29F490917A021916BCF32BC0AD
:102BC000909179028F3E29F497FF25C010927902E7
:102BD00049C0803F19F41916CCF31DC090917B02B7
:102BE000893F29F41916BCF410927B023BC08A3F3E
:102BF00019F497FF10C0F8CF8B3F39F490917C0205
:102C000097FF09C010927C022DC08C3F21F4909157
:102C10007C021916BCF39FE0980F983080F421E0F5
:102C200030E0A90102C0440F551F9A95E2F7CA018E
:102C300080959091780289238093780213C08D3F0C
:102C400021F4809177028E7F0BC08E3F21F480911A
:102C500077028D7F05C08F3F29F4809177028B7FAB
:102C60008093770280917902811106C080917A0267
:102C7000811102C01092760280917B02811106C000
:102C800080917C02811102C01092750208950E9409
:102C9000611C20917902211104C020917A02222323
:102CA00021F0909374028093730220917B02211192
:102CB00004C020917C02222321F090937202809321
:102CC000710288E792E00C94D31AEF92FF920F936F
:102CD0001F93CF93DF9300D000D01F92CDB7DEB704
:102CE00085E0E8E7F2E0DE01119601900D928A9509
:102CF000E1F7E0907902F0907A0200917B02109166
:102D00007C021092790210927A0210927B02109249
:102D10007C02E11003C0FF2009F45DC080917302C2
:102D2000909174020E94791CAC01909176029923D3
:102D300039F02091120130E02417350758F04BC0CC
:102D4000209170028AE0289F9001112424173507F2
:102D500018F041C09F3F19F09F5F90937602EE20DC
:102D600061F00E94FD141E1414F09FEF01C091E069
:102D7000989F902D112490937902FF2061F00E947A
:102D8000FD141F1414F09FEF01C091E0989F902D47
:102D9000112490937A02309179023323E1F020914B
:102DA0007A022223C1F045EB3403C0011124992398
:102DB00019F09093790203C081E08093790235EB9A
:102DC0002303C0011124992319F090937A0203C0C0
:102DD00081E080937A02011103C0112309F45DC0E0
:102DE00080917102909172020E94791CAC019091C5
:102DF0007502992339F020910E0130E02417350730
:102E000058F04BC020910F018AE0289F90011124B7
:102E10002417350718F041C09F3F19F09F5F90932A
:102E20007502002361F00E943C15101614F09FEF0C
:102E300001C091E0989F902D112490937B02112363
:102E400061F00E943C15111614F09FEF01C091E053
:102E5000989F902D112490937C0230917B02332314
:102E6000E1F020917C022223C1F045EB3403C00144
:102E70001124992319F090937B0203C081E0809381
:102E80007B0235EB2303C0011124992319F09093A1
:102E90007C0203C081E080937C02809179028111E1
:102EA0000BC080917A02811107C080917B02811151
:102EB00003C080917C0281110E944716EA82FB8246
:102EC0000C831D8385E0FE013196A8E7B2E00190F6
:102ED0000D928A95E1F70F900F900F900F900F9041
:102EE000DF91CF911F910F91FF90EF900895E8E748
:102EF000F2E085E0DF011D928A95E9F710927602F3
:102F000010927502109277020895CF93DF93EC012F
:102F1000FB018281882309F43CC1C430FDE5DF0751
:102F200060F4CB3F9CE5D90788F49E0122503C45D4
:102F30002431310508F02EC109C0C236EDE5DE07A7
:102F400029F0C63AFDE5DF0709F024C10E94891087
:102F50009093B3028093B202C1318CE5D80709F493
:102F6000C6C008F042C0C930ECE5DE0709F49BC0DA
:102F700000F5C5308CE5D80709F485C078F4C33076
:102F8000ECE5DE0709F478C008F07AC0C230DC4511
:102F900009F0F5C08091B2028160EFC0C7309CE5B6
:102FA000D90709F478C008F07AC08091B202806134
:102FB000E4C0CD30FCE5DF0709F487C058F4CB301E
:102FC0009CE5D90709F479C008F07BC08091B20272
:102FD00088606FC0CF30FCE5DF0709F480C008F0DF
:102FE00082C08091B202877FC8C0CE3F9CE5D907DE
:102FF00009F471C000F5C531FCE5DF0709F485C0AF
:1030000068F4C3319CE5D90709F475C008F095C090
:103010000E943E0A8091B2028F77AFC0CC3FFCE5A0
:10302000DF07A9F108F054C0CB3FDC4509F0A7C089
:103030008091B30240C0C230EDE5DE0709F489C0DB
:1030400058F4C1158DE5D80709F45AC008F069C0D5
:103050008091B30282602FC0C236EDE5DE0709F42D
:103060007CC0C63AFDE5DF0709F481C0C330DD4509
:1030700009F085C080E06EC08091B20282607DC0A0
:103080008091B20216C08091B202886076C08091B1
:10309000B30282604FC08091B20280626EC08091A4
:1030A000B20280646AC00E943E0A8091B2028068C7
:1030B00064C0846062C081603DC08091B2028E7F36
:1030C0005CC08091B2028D7F58C08091B20216C060
:1030D0008091B30218C08091B3028D7F2BC0809184
:1030E000B2028F7E4AC08091B2028F7D46C080912D
:1030F000B2028F7B42C08091B202877F8B7F3DC03E
:103100008091B3028D7F8E7F15C08091B20282FBC9
:10311000222720F991E0922790FB82F990FB83F916
:103120002CC08091B302982F909591708E7F892B3F
:1031300090FB81F98093B30222C00E943E0A8091E5
:10314000B20287FB222720F991E0922790FB87F9B2
:1031500014C081E00E941D1112C08091B20284FB54
:10316000222720F991E0922790FB84F906C08091F4
:10317000B202982F909590FB80F98093B2028091D3
:10318000B2029091B3020E949A100E943E0A80E01F
:1031900001C081E0DF91CF910895CF93DF93863115
:1031A0009C4541F5EB010E94930F982F8A81209155
:1031B0000A0130910B01882379F09A7A81E009F4B1
:1031C00080E080937D02911102C069E201C065E355
:1031D000C9010E94A01B0AC080917D02811102C01A
:1031E00069E201C065E3C9010E94AB1B0E94D50FD3
:1031F00080E001C081E0DF91CF9108950F931F938C
:10320000CF93DF93C42FD22FFC0182818823C9F092
:10321000409380020E94611C90937F0280937E0203
:1032200080E28C0F883008F057C0C77081E001C081
:10323000880FCA95EAF7DF91CF911F910F910C94F7
:10324000A30780918002481330C080917E02909144
:103250007F020E94791C883C910538F510E21D0F11
:10326000CD17B9F080E28C0F883040F4C77081E050
:1032700001C0880FCA95EAF70E94AA07183028F5FE
:1032800081E09D2F977001C0880F9A95EAF70E9400
:10329000A307802F0E949A071830F0F4D77081E0BE
:1032A00001C0880FDA95EAF70AC080E28C0F8830F7
:1032B00098F4C77081E001C0880FCA95EAF7DF91E2
:1032C000CF911F910F910C94AA07802FDF91CF917E
:1032D0001F910F910C949A07DF91CF911F910F913D
:1032E00008950F939C01CB01243F4CE5340731F145
:1032F00088F4293DFCE53F07D9F02A3D4CE5340729
:1033000079F1283D3C45A9F506E221EE41EE68ED54
:103310007CE52BC0263FFCE53F07E1F0A8F0273F06
:103320003C4539F507E225EE46EE67EF7CE51DC02A
:1033300007E225EE45EE69ED7CE517C006E221EED9
:1033400040EE64EF7CE511C007E225EE44EE65EF48
:103350007CE50BC006E221EE42EE66EF7CE505C09F
:1033600008E221E045EE6AED7CE50E94FE1880E06F
:1033700008C0FC018281882319F01092800201C0EC
:1033800081E00F9108951092B9008CE08093B8000D
:1033900008959F92AF92BF92CF92DF92EF92FF92E9
:1033A0000F931F93CF93DF93B82EEB010E94611C04
:1033B0006C01C431D10558F0CF3F8FEFD80759F0D9
:1033C000CE0164E170E00E94C5237B0107C0EE24BA
:1033D000E394F12C03C025E0E22EF12C84E8A82E22
:1033E00094EA992E1092BC009092BC000E94611C3D
:1033F0008C018091BC0087FD08C00E94611C801B6D
:10340000910B8E159F05A8F32AC08091B900887F83
:10341000883041F08091B900887F803119F00FEF3A
:103420001FEF1FC0B092BB00A092BC000E94611CA5
:103430008C018091BC0087FD08C00E94611C801B2C
:10344000910B8E159F05A8F30AC08091B900887F63
:10345000883111F0803419F700E010E00EC00EEF53
:103460001FEFCF3F8FEFD80709F4BCCFC6010E94F2
:10347000791C8C179D0708F4B5CFC801DF91CF9157
:103480001F910F91FF90EF90DF90CF90BF90AF9082
:103490009F9008950F931F93CF93DF93EB01809339
:1034A000BB0084E88093BC000E94611C8C01809169
:1034B000BC0087FD0EC0CF3F8FEFD807C1F30E943D
:1034C000611C801B910B8C179D0788F38EEF9FEF7B
:1034D0000CC02091B900287F81E090E0283211F4DF
:1034E00080E090E0919581959109DF91CF911F91B6
:1034F0000F9108950F931F93CF93DF93EC0184E80E
:103500008093BC000E94611C8C018091BC0087FDEF
:103510000EC0CF3F8FEFD807C1F30E94611C801B04
:10352000910B8C179D0788F38EEF9FEF03C080915E
:10353000BB0090E0DF91CF911F910F91089584E936
:103540008093BC0008959093930180939201089515
:1035500090938602809385020895E0918502F09110
:103560008602309721F00190F081E02D099480E0EF
:103570000895E0918502F0918602309799F02091AC
:103580001F01222359F02091B20227FF07C0DC015E
:103590002C9111962C93119726E02C930280F381A5
:1035A000E02D09940895E0918502F091860230970C
:1035B00021F00480F581E02D099408952091830283
:1035C000309184022817390771F090938402809318
:1035D0008302E0918502F0918602309721F0068007
:1035E000F781E02D099408952091810230918202A3
:1035F0002817390771F09093820280938102E0913D
:103600008502F0918602309721F00084F185E02D4B
:1036100009940895FC01329680911F01882331F0AE
:103620008091B20287FF02C09EE101C096E080E077
:10363000915028F021912223D9F38F5FF9CF08957B
:10364000662351F120911F012223E9F02091B2025B
:1036500027FF19C0462F4695469546954E31E0F412
:10366000677021E030E002C0220F331F6A95E2F755
:10367000FC01E40FF11D828190E02823392381E0D1
:10368000232B69F409C0FC01329608962191621738
:1036900029F0E817F907D1F780E0089581E008954F
:1036A0009C01FC0132969FEF80E04191461789F022
:1036B0009F3F19F4411101C0982F8F5F8630A9F701
:1036C0009F3F39F0F901E90FF11D97FDFA956283EB
:1036D000089508959C012A5F3F4FFC0142814613E3
:1036E00001C01282019682179307B9F70895262F19
:1036F0002695269526952E3168F4FC01E20FF11DE2
:10370000677021E030E001C0220F6A95EAF78281FC
:10371000282B22830895262F2695269526952E312F
:1037200070F4FC01E20FF11D677021E030E001C090
:10373000220F6A95EAF72095828128232283089533
:1037400020911F01222329F02091B20227FD0C9421
:10375000771B0C94501B20911F01222329F02091EC
:10376000B20227FD0C948B1B0C946A1B20911F0145
:10377000FC013296222331F08091B20287FF02C011
:103780008EE101C086E0DF011D928A95E9F7089578
:1037900008950C94C81B83E0809387020C94C91B86
:1037A000811102C081E001C082E0809387020C9405
:1037B000C91B0C94D01B81E0809387020C94C91B19
:1037C0000C94DB1B08950C94E21B0C94E31B0C94EB
:1037D000E21B0C94E21BCF930E940C040E9438144D
:1037E0000E94E71BC0E08C2F0E941B14811104C0B3
:1037F000CF5FCE30C1F701C081E0CF910895089529
:103800001F920F920FB60F9211248F939F93AF9335
:10381000BF9380918802811113C08091D002909152
:10382000D102A091D202B091D3024196A11DB11D47
:103830008093D0029093D102A093D202B093D3028E
:10384000BF91AF919F918F910F900FBE0F901F90DE
:1038500018958091D802843031F10E94F6051092BB
:10386000880220E488E190E00FB6F894A895809350
:1038700060000FBE2093600083B7817F846083BFA8
:1038800083B7816083BF7894889583B78E7F83BF29
:103890000FB6F894A89580916000886180936000CD
:1038A000109260000FBE08950E943E0A0C94FA0523
:1038B00082E084BD93E095BD9AEF97BD80936E0042
:1038C00008952FB7F8948091D0029091D102A091E1
:1038D000D202B091D3022FBF08952FB7F894609110
:1038E000D0027091D1028091D2029091D3022FBF69
:1038F00008959C014FB7F8948091D0029091D10225
:10390000A091D202B091D3024FBF821B930B0895B6
:1039100078941F920F920FB60F9211248F939F935A
:10392000AF93BF938091D0029091D102A091D20227
:10393000B091D3020196A11DB11D8093D002909346
:10394000D102A093D202B093D302BF91AF919F91C5
:103950008F910F900FBE0F901F901895F89481E0F3
:103960008093E00080E28093D800E9ECF0E01082E0
:103970008FE19EE40197F1F700C000001DBA10929C
:1039800068001CBC10BE1FBA10927A0010926E0024
:1039900010926F0010927100109272001082ECEB86
:1039A000F0E0108214B817B81AB81DB810BA108217
:1039B00015B818B81BB81EB811BA0C94003F08957A
:1039C0008091AC020895089522E02093E9002FEF42
:1039D0003091E800215035FD06C035ED3A95F1F7FC
:1039E00000002111F5CF2091E80025FF0BC040E039
:1039F00050E065E070E00E94271F8091E8008E771C
:103A00008093E8000895CF93DF9320911F01222334
:103A100039F02091B20227FF03C060E223E002C028
:103A200068E021E02093E9002FEF3091E800215079
:103A300035FD06C035ED3A95F1F700002111F5CFBF
:103A40002091E80025FF1DC0EC0180911F0181112C
:103A500005C040E050E068E070E003C070E040E086
:103A600050E0CE010E94271F8091E8008E7780935E
:103A7000E80080E2FE01ACE8B2E001900D928A9588
:103A8000E1F7DF91CF9108958093890270938B02C3
:103A900060938A028091D802843001F583E080939C
:103AA000E9008FEF9091E800815095FD06C095EDFB
:103AB0009A95F1F700008111F5CF8091E80085FF1C
:103AC0000DC040E050E063E070E089E892E00E94C1
:103AD000271F8091E8008E778093E8000895BC014D
:103AE00084E00C94441DBC0183E00C94441D80913F
:103AF000D702811109C00E94B8200E94152180912F
:103B0000E20084608093E20008951092D702089545
:103B10000C94E01B6091D40281E0611101C080E04F
:103B20000C94CB1B9091D80281E0943009F080E096
:103B30006091D4020C94D01B42E061EC81E00E94C1
:103B4000312042E061EC82E00E94312042E261ECEF
:103B500083E00E9431209091D80281E0943009F0F6
:103B600080E06091D4020C94D91B8091DA028330FA
:103B700009F463C030F4813071F0823009F49CC0E4
:103B800008958A3009F488C08B3009F46EC08930FA
:103B900009F0AAC020C08091D902813A09F0A4C0DE
:103BA0008091E800877F8093E8008091DD0290910A
:103BB000DE02892B21F460E28CE892E003C060E031
:103BC00080E090E070E00E94721F8091E8008B77A7
:103BD0008093E80008958091D902813209F084C071
:103BE0008091DD029091DE02009719F0029709F0B2
:103BF0007BC08091E800877F8093E8008091E80097
:103C000082FD05C08091D8028111F8CF6DC020914E
:103C1000F3008091F20090E0922B029731F48091B2
:103C2000F100813011F0863021F48091F100809311
:103C3000AC028091E8008B7753C08091D902813A21
:103C400009F052C08091DD029091DE02892B09F0CB
:103C50004BC08091E800877F8093E8008091E80066
:103C600080FFFCCF80911F0136C08091D902813244
:103C7000D9F58091DD029091DE02892BA9F5809122
:103C8000E800877F8093E8000E9466208091DB0235
:103C900080931F010C943E0A8091D902813221F554
:103CA0008091E800877F8093E8000E9466208091E1
:103CB000DC028093AD0208958091D902813AA1F48B
:103CC0008091E800877F8093E8008091E80080FF82
:103CD000FCCF8091AD028093F1008091E8008E7757
:103CE0008093E8000C946620089584B7877F84BF92
:103CF0000FB6F894A8958091600088618093600069
:103D0000109260000FBE90E080E80FB6F8948093A8
:103D10006100909361000FBE0C94DB1B0E94B820E1
:103D20000E941521E2EEF0E0808184608083789427
:103D30000C94AA2383E191E00C94A81A8091D802F4
:103D40008530A9F48091D802853079F40E94291C2D
:103D50008091D6028823B1F30E94EB1B882391F354
:103D60000E94111F0E943E0AEDCF0C94541C08952E
:103D700008950C94BB1E292F332723303105C9F039
:103D800060F42130310581F02230310509F041C065
:103D900084E590E024E734E040C021323105E1F0D1
:103DA0002232310531F135C082E190E028EC34E077
:103DB00034C099278130910549F028F0029749F5E0
:103DC000EEE2F4E005C0E0E7F4E002C0E6E4F4E08F
:103DD000849190E09F0121C063307105D0F4660F9B
:103DE000771FFB01E557FE4F2081318189E090E08C
:103DF00014C06330710568F4FB01EE0FFF1FEB5731
:103E0000FE4F20813181FB01EE57FE4F808190E013
:103E100004C080E090E020E030E0FA0131832083AC
:103E2000089580E189BD82E189BD09B400FEFDCF1E
:103E30008091D8008F7D8093D8008091E0008260CF
:103E40008093E0008091E00081FDFCCF0895CF9247
:103E5000DF92EF92FF920F931F93CF93DF93EC01CA
:103E60008B017A010E948520811133C0E114F10495
:103E700039F0F70180819181081B190BC80FD91FF8
:103E8000C12CD12C0115110519F18091E80085FD97
:103E900016C08091E8008E778093E800E114F10469
:103EA00049F0F70180819181C80ED91ED182C0826C
:103EB00085E00FC00E948520882321F30AC08991E4
:103EC0008093F10001501109FFEFCF1ADF0ADACF1A
:103ED00080E0DF91CF911F910F91FF90EF90DF90E5
:103EE000CF9008952091DF023091E0022617370726
:103EF00048F06115710539F42091E8002E77209380
:103F0000E80001C0B901FC0120E06115710579F1FB
:103F10008091D8028823F1F18530F1F18091E80099
:103F200083FD3CC08091E80082FD2EC08091E800B6
:103F300080FFEBCF2091F3008091F20090E0922B74
:103F40006115710551F08830910538F42191209365
:103F5000F100615071090196F3CF21E0089709F053
:103F600020E08091E8008E778093E800CECF211189
:103F7000CFCF0AC08091D802882361F0853061F0EC
:103F80008091E80083FD0AC08091E80082FFF2CFB3
:103F900080E0089582E0089583E0089581E0089527
:103FA0002091DF023091E0022617370748F06115B3
:103FB000710539F42091E8002E772093E80001C0C4
:103FC000B901FC0120E06115710591F18091D802E1
:103FD000882309F440C0853009F43FC08091E8008F
:103FE00083FD3DC08091E80082FD2FC08091E800F4
:103FF00080FFE9CF2091F3008091F20090E0922BB6
:104000006115710559F08830910540F42491209391
:10401000F1003196615071090196F2CF21E00897C5
:1040200009F020E08091E8008E778093E800CBCF04
:104030002111CCCF0AC08091D802882361F085304D
:1040400061F08091E80083FD0AC08091E80082FF62
:10405000F2CF80E0089582E0089583E0089581E042
:104060000895982F973068F59093E900981739F0E4
:104070007091EC002091ED005091F00003C0242FCE
:10408000762F50E021FD02C09F5FECCF3091EB0016
:104090003E7F3093EB003091ED003D7F3093ED009B
:1040A0003091EB0031603093EB007093EC00209383
:1040B000ED005093F0002091EE0027FDE5CF80E069
:1040C00008958F708093E90081E008958091D9026E
:1040D00087FF11C08091E80082FD05C08091D80261
:1040E0008111F8CF11C08091E8008B770BC08091CF
:1040F000D802882349F08091E80080FFF8CF8091B2
:10410000E8008E778093E80008952091E4003091D4
:10411000E50095E64091EC00842F817040FF23C0BC
:104120008091E80080FD1DC08091D802882399F01D
:10413000853099F08091EB0085FD11C04091E4003D
:104140005091E5002417350729F3915011F09A0199
:10415000E1CF84E0089582E0089583E0089581E04E
:10416000089580E008954091E80042FFDDCF089572
:104170000E9426210E942E21E0EEF0E080818160E5
:104180008083E8EDF0E080818F77808319BCA7ED14
:10419000B0E08C918E7F8C9380818F7E8083109293
:1041A000D70208950F931F93CF93DF930E94262188
:1041B0000E942E21C8EDD0E088818F778883888186
:1041C0008068888388818F7D888319BC1092D8028B
:1041D0001092D4021092D6021092D50200EE10E096
:1041E000F80180818B7F808388818160888342E0B1
:1041F00060E080E00E943120E1EEF0E080818E7F7F
:104200008083E2EEF0E0808181608083808188603D
:104210008083F80180818E7F80838881806188839C
:10422000DF91CF911F910F910895E8EDF0E080812B
:104230008F7E8083E7EDF0E080818160808384E081
:1042400082BF81E08093D7020C94D220E8EDF0E0A9
:1042500080818E7F80831092E20008951092DA00B0
:104260001092E10008951F920F920FB60F92112441
:104270002F933F934F935F936F937F938F939F936E
:10428000AF93BF93EF93FF938091E10082FF0BC048
:104290008091E20082FF07C08091E1008B7F8093D4
:1042A000E1000E94A9238091DA0080FF1FC0809165
:1042B000D80080FF1BC08091DA008E7F8093DA00E7
:1042C0008091D90080FF0DC080E189BD82E189BD68
:1042D00009B400FEFDCF81E08093D8020E94771DD3
:1042E00005C019BC1092D8020E94851D8091E10082
:1042F00080FF19C08091E20080FF15C08091E2002C
:104300008E7F8093E2008091E20080618093E200E2
:104310008091D80080628093D80019BC85E080939A
:10432000D8020E948A1D8091E10084FF30C08091F4
:10433000E20084FF2CC080E189BD82E189BD09B41F
:1043400000FEFDCF8091D8008F7D8093D8008091B2
:10435000E1008F7E8093E1008091E2008F7E809368
:10436000E2008091E20081608093E2008091D402BB
:10437000882311F084E007C08091E30087FD02C02C
:1043800081E001C083E08093D8020E94921D809159
:10439000E10083FF29C08091E20083FF25C0809166
:1043A000E100877F8093E10082E08093D802109241
:1043B000D4028091E1008E7F8093E1008091E20041
:1043C0008E7F8093E2008091E20080618093E20022
:1043D00042E060E080E00E9431208091F00088603F
:1043E0008093F0000E94881DFF91EF91BF91AF91E3
:1043F0009F918F917F916F915F914F913F912F91FD
:104400000F900FBE0F901F9018951F920F920FB62E
:104410000F9211242F933F934F935F936F937F934A
:104420008F939F93AF93BF93CF93DF93EF93FF93BC
:10443000C091E900CF708091EC00D82FD17080FD41
:10444000D0E81092E9008091F000877F8093F0001F
:1044500078940E9449221092E9008091F0008860CF
:104460008093F000CD2BCF70C093E900FF91EF91C6
:10447000DF91CF91BF91AF919F918F917F916F917C
:104480005F914F913F912F910F900FBE0F901F9012
:1044900018951F93CF93DF93CDB7DEB7AA970FB6CA
:1044A000F894DEBF0FBECDBFE9EDF2E08091F100E0
:1044B000819322E0E13EF207C9F70E94B51D809189
:1044C000E80083FF2EC18091D9029091DA02492F32
:1044D00050E04A30510508F024C1FA01E759FF4F76
:1044E0000C94ED23803821F0823809F01AC108C0FD
:1044F0008091D5029091D602992389F082600FC0F5
:104500008091DD028F70873008F00BC18093E90045
:104510008091EB0085FB882780F91092E90090914B
:10452000E800977F9093E8008093F1001092F100EB
:10453000D1C0282F2D7F09F0F4C0882319F08230D4
:1045400061F0EFC08091DB02813009F0EAC0933066
:1045500009F080E08093D6022EC08091DB028111A9
:104560002AC08091DD028F702FEF280F263008F0CF
:10457000D8C08093E9002091EB0020FF1CC093304D
:1045800021F48091EB00806214C09091EB00906167
:104590009093EB0021E030E0A90102C0440F551FC9
:1045A0008A95E2F74093EA001092EA008091EB00CE
:1045B00088608093EB001092E9008091E800877F8B
:1045C0008093E8000E946620ACC08111AAC01091BF
:1045D000DB021F778091E3008078812B8093E300DA
:1045E0008091E800877F8093E8000E946620809198
:1045F000E80080FFFCCF8091E30080688093E300B7
:10460000111102C082E001C083E08093D80289C00A
:104610008058823008F085C08091DB029091DC02E6
:104620008C3D53E0950779F583E08A838AE289839C
:104630004FB7F894DE01139620E03EE051E2E32FFD
:10464000F0E050935700E49120FF03C0E295EF7033
:104650003F5FEF708E2F90E0EA3010F0C79601C0F8
:10466000C0968D939D932F5F243149F74FBF809162
:10467000E800877F8093E8006AE270E0CE0101964F
:104680000E94721F16C06091DD027091DE02AE01C1
:104690004F5F5F4F0E94B91EBC01892B09F441C0D6
:1046A0009091E800977F9093E80089819A810E9419
:1046B000D01F8091E8008B778093E80032C080386B
:1046C00081F58091E800877F8093E8008091D40293
:1046D0008093F1008091E8008E7772CF811121C024
:1046E0008091DB029091DC0299270297D4F48091AB
:1046F000E800877F8093E8008091DB028093D402FA
:104700000E9466208091D402811106C08091E3004E
:1047100087FD02C081E001C084E08093D8020E943E
:104720009C1D8091E80083FF0AC08091E800877F8C
:104730008093E8008091EB0080628093EB00AA9662
:104740000FB6F894DEBF0FBECDBFDF91CF911F91A2
:1047500008950895CF938091D8028823A1F0C09145
:10476000E900CF709091EC00892F817090FD80E876
:10477000C82B1092E9008091E80083FD0E94492235
:10478000CF70C093E900CF910895AA1BBB1B51E1E4
:1047900007C0AA1FBB1FA617B70710F0A61BB70BB1
:1047A000881F991F5A95A9F780959095BC01CD0156
:1047B000089597FB072E16F4009407D077FD09D0D3
:1047C0000E94C52307FC05D03EF4909581959F4F2C
:1047D0000895709561957F4F0895EE0FFF1F059026
:1047E000F491E02D09940F931F93CF93DF938230C0
:1047F000910510F482E090E0E091E302F091E40290
:1048000020E030E0A0E0B0E0309719F14081518124
:104810000281138148175907C8F08417950769F476
:10482000109731F012960C93129713961C9327C091
:104830000093E3021093E40222C02115310519F020
:104840004217530718F49A01BD01EF01DF01F80187
:10485000DBCF21153105F9F0281B390B2430310548
:1048600080F48A819B816115710521F0FB0193839E
:10487000828304C09093E4028093E302FE013296A7
:1048800044C0FE01E20FF31F81939193225031093E
:10489000398328833AC02091E1023091E202232B30
:1048A00041F420910201309103013093E202209300
:1048B000E10220910001309101012115310541F4FF
:1048C0002DB73EB74091040150910501241B350BD3
:1048D000E091E102F091E202E217F307A0F42E1B4F
:1048E0003F0B2817390778F0AC014E5F5F4F241754
:1048F000350748F04E0F5F1F5093E2024093E102EC
:104900008193919302C0E0E0F0E0CF01DF91CF917D
:104910001F910F910895CF93DF93009709F481C001
:10492000FC01329713821282A091E302B091E4025B
:10493000109781F420813181820F931F2091E10231
:104940003091E2022817390751F5F093E202E09323
:10495000E10267C0ED0120E030E0CE17DF0740F450
:104960004A815B819E0141155105F1F0EA01F5CFC5
:10497000D383C28340815181840F951FC817D90703
:1049800059F488819981840F951F029691838083C1
:104990008A819B81938382832115310529F4F093C9
:1049A000E402E093E3023DC0E901FB83EA8349911D
:1049B0005991C40FD51FEC17FD0761F480819181D7
:1049C000840F951F0296E9019983888382819381E0
:1049D0009B838A83E0E0F0E012968D919C9113977F
:1049E000009719F0FD01DC01F7CF8D919C91119793
:1049F0009D012E5F3F4F820F931F2091E102309166
:104A0000E2022817390769F4309729F41092E4027A
:104A10001092E30202C013821282B093E202A093CA
:104A2000E102DF91CF910895FB01DC0104C08D917B
:104A30000190801921F441505040C8F7881B990B10
:104A40000895F999FECF92BD81BDF89A992780B556
:104A50000895A6E1B0E044E050E00C945B25A8E1A5
:104A6000B0E042E050E00C945B25262FF999FECF90
:104A700092BD81BDF89A019700B4021639F01FBAB1
:104A800020BD0FB6F894FA9AF99A0FBE08950396CE
:104A9000272F0E9436250E943525252F0E94362576
:104AA000242F0C9436250196272F0E9436250C942E
:104AB0003525DC01CB01FC01F999FECF06C0F2BD22
:104AC000E1BDF89A319600B40D9241505040B8F7CC
:064AD0000895F894FFCFE9
:104AD6000000E50220002000C80031023C0714282F
:104AE6003C0714E01C031DE41C731D6F1DE31C0131
:104AF600E200E900EA00B500B600B700CD00830188
:104B0600CC008A019201940121022302240225028B
:104B1600260227022A02B300B4006F0070008182C9
:104B260083E200E900EA00B500B600B700CD0083D5
:104B360001CC008A0192019401210223022402255C
:104B460002260227022A02B300B4006F0070008119
:104B5600828340476D8E054705DA0486049F04B8B4
:024B6600040049
:00000001FF
